0016AZD0000000001*100111NUDOSSNUDOSS                        INTEGER  I000100018R0000
0016AZD0000000001*100211CDSOC CDSOC                         CHAR     X000030028R0000
0016AZD0000000001*100311PGPDOSPGPDOS                        INTEGER  I000100031R0000
0016AZD0000000001*100411TEVEROTEVERO                        CHAR     X000010041R0000
0016AZD0000000001*100511TIVERRTIVERR                        TIMESTAMPX000190042R0000
0016AZD0000000001*100611TIMJDOTIMJDO                        TIMESTAMPH000190061R0000
0016AZD0000000001*100711VACDSTVACDST                        CHAR     X000030080R0000
0016AZD0000000001*100811TITRANTITRAN                        TIMESTAMPH000190083R0000
0016AZD0000000001*100911USERIDUSERID                        CHAR     X000250102R0000
0016AZD0000000001*101011ROLMODROLMOD                        CHAR     X000200127R0000
0016AZD0000000001*101111ROLVALROLVAL                        CHAR     X000640147R0000
0016AZD0000000001*101211ATTRI1ATTRI1                        CHAR     X000080211R0000
0016AZD0000000001*101311ATTRI2ATTRI2                        CHAR     X000080219R0000
0016AZD0000000001*101411ATTRI3ATTRI3                        CHAR     X000080227R0000
0016AZD0000000001*101511ATTRI4ATTRI4                        CHAR     X000200235R0000
0016AZD0000000001*101611ATTRI5ATTRI5                        CHAR     X000200255R0000
0016AZD0000000001*101711ROWNERROWNER                        CHAR     X000250275R0000
0016AZD0000000001*101811TECPRTTECPRT                        CHAR     X000080300R0000
0016AZD0000000001*200112NUDOSSNUDOSS                        INTEGER  I000100018R0000
0016AZD0000000001*200212PGPDOSPGPDOS                        INTEGER  I000100028R0000
0016AZD0000000001*200312CDINFOCDINFO                        CHAR     X000020038R0000
0016AZD0000000001*200412TIMJIFTIMJIF                        TIMESTAMPH000190040R0000
0016AZD0000000001*200512TEVEROTEVERO                        CHAR     X000010059R0000
0016AZD0000000001*200612TECPRTTECPRT                        CHAR     X000080060R0000
0016AZD0000000001*200712NOMBRENOMBRE                        INTEGER  I000060068R0000
0016AZD0000000001*200812NULMAXNULMAX                        INTEGER  I000070074R0000
0016AZD0000000001*200912NUCMAXNUCMAX                        INTEGER  I000070081R0000
0016AZD0000000001*700107CDSTDOCDSTDO                        CHAR     X000020018R0000
0016AZD0000000001*700207VACDSTVACDST                        CHAR     X000030020R0000
0016AZD0000000001*700307TIANNUTIANNU                        TIMESTAMPH000190023R0000
0016AZD0000000001*700407TIMODITIMODI                        TIMESTAMPH000190042R0000
0016AZD00000000000000100NUDOSSNUDOSS                        INTEGER  I000100018R0000
0016AZD00000000000000200SOCDOSSOCDOS                        CHAR     X000030028R0000
0016AZD00000000000000300PGPDOSPGPDOS                        INTEGER  I000100031R0000
0016AZD00000000000000400CDREGLCDREGL                        CHAR     X000030041R1100
0016AZD00000000000000500CDSTCOCDSTCO                        CHAR     X000030044R1010
0016AZD00000000000000600CDCODECDCODE                        CHAR     X000150047R1000
0016AZD00000000000000700TEREGXTEREGX                        CHAR     X000010062R0000
0016AZD00000000000000800CDRG01CDRG01                        CHAR     X000030063R0000
0016AZD00000000000000900CDRG02CDRG02                        CHAR     X000030066R0000
0016AZD00000000000001000CDRG03CDRG03                        CHAR     X000030069R0000
0016AZD00000000000001100CDRG04CDRG04                        CHAR     X000030072R0000
0016AZD00000000000001200CDRG05CDRG05                        CHAR     X000030075R0000
0016AZD00000000000001300CDRG06CDRG06                        CHAR     X000030078R0000
0016AZD00000000000001400CDRG07CDRG07                        CHAR     X000030081R0000
0016AZD00000000000001500CDRG08CDRG08                        CHAR     X000030084R0000
0016AZD00000000000001600CDRG09CDRG09                        CHAR     X000030087R0000
0016AZD00000000000001700CDRG10CDRG10                        CHAR     X000030090R0000
0016AZD00000000000001800DTDVA DTDVA                         DATE     Q000100093R0000
0016AZD00000000000001900DTFVA DTFVA                         DATE     Q000100103R0000
0016AZD00000000000002000IDGPRGIDGPRG                        INTEGER  I000100113R0Q00
0025DZD000219088000000+000219088VXR+000000000VXRDRCA84            A                              0001-01-012999-12-31+000000000X
0062DZD0002190881*1000+000219088VXR+00000000000001-01-01-00.00.002018-07-04-11.19.11DRC0001-01-01-00.00.00                                                                                                                                                                                                              X
0018DZD0002190881*2000+000219088+000000000002018-07-04-11.19.110        +00001+000000+000000X
0016AZD00000000010100101NUDOSSNUDOSS                        INTEGER  I000100018R0000
0016AZD00000000010100201CDLANGCDLANG                        CHAR     X000010028R0000
0016AZD00000000010100301NULIGNNULIGN                        INTEGER  I000070029R0000
0016AZD00000000010100401SOCDOSSOCDOS                        CHAR     X000030036R0000
0016AZD00000000010100501PGPDOSPGPDOS                        INTEGER  I000100039R0000
0016AZD00000000010100601LIBLONLIBLON                        CHAR     Y000450049R0000
0016AZD00000000010100701LIBABRLIBABR                        CHAR     Y000180094R0000
0016AZD00000000010100801LBCMP1LBCMP1                        CHAR     Y002540112R0000
0016AZD00000000010100901LBCMP2LBCMP2                        CHAR     Y002540366R0000
0016AZD00000000010101001LBCMP3LBCMP3                        CHAR     Y002540620R0000
0016AZD00000000010101101BLOB01BLOB01                        CHAR     X000010874R0000
0176DZD000219088101000+000219088F+000001VXR+000000000Assiette du plafond de sécurité sociale      Ass.plaf.séc.soc.                                                                                                                                                                                                                                                                                                                                                                                                                                                                                                                                                                                                                                                                                                                                                                                            X
0018DZD0002190881*2000+000219088+000000000012018-07-04-11.19.110        +00001+000001+000000X
0016AZD00000000012100121NUDOSSNUDOSS                        INTEGER  I000100018R0000
0016AZD00000000012100221NULIGNNULIGN                        INTEGER  I000070028R0000
0016AZD00000000012100321SOCDOSSOCDOS                        CHAR     X000030035R0000
0016AZD00000000012100421PGPDOSPGPDOS                        INTEGER  I000100038R0000
0016AZD00000000012100521QLRTYPQLRTYP                        CHAR     X000150048R1000
0016AZD00000000012100621QUALIFQUALIF                        CHAR     X000150063R0000
0016DZD000219088121000+000219088+000001VXR+000000000FRCATEGORY     FRPREINTEGSOC  X
0018DZD0002190881*2000+000219088+000000000212018-07-04-11.19.110        +00001+000001+000000X
0016AZD00000000019R0019RNUDOSSNUDOSS                        INTEGER  I000100018R0000
0016AZD00000000019R0029RNULIGNNULIGN                        INTEGER  I000070028R0000
0016AZD00000000019R0039RSOCDOSSOCDOS                        CHAR     X000030035R0000
0016AZD00000000019R0049RPGPDOSPGPDOS                        INTEGER  I000100038R0000
0016AZD00000000019R0059RCDSTDFCDSTDF                        CHAR     X000020048R1000
0016AZD00000000019R0069RIDOBJFIDOBJF                        CHAR     X002000050R1000
0016AZD00000000019R0079RTYATCHTYATCH                        CHAR     X000010250R1000
0016AZD00000000019R0089RCDSTDICDSTDI                        CHAR     X000020251R0000
0016AZD00000000019R0099RIDGPRFIDGPRF                        INTEGER  I000100253R0000
0016AZD00000000019R0109RTYOBJITYOBJI                        CHAR     X000500263R0000
0016AZD00000000019R0119RTYOBJFTYOBJF                        CHAR     X000500313R0000
0016AZD00000000019R0129RNATREFNATREF                        CHAR     X000010363R0000
0016AZD00000000019R0139RTYPREFTYPREF                        CHAR     X000010364R0000
0074DZD00021908819R000+000219088+000012VXR+000000000ZDCOM|DLA|FRCATEGORY                                                                                                                                                                                       ZD+000000000TAggregate-FR-FR-FR                               TQualifierType                                    IAX
0074DZD00021908819R000+000219088+000013VXR+000000000ZDCOM|UCA|FRPREINTEGSOC                                                                                                                                                                                    ZD+000000000TAggregate-FR-FR-FR                               TQualifier                                        IAX
0018DZD0002190881*2000+000219088+0000000009R2018-07-04-11.19.110        +00002+000013+000000X
0016AZD0000000001AH001AHNUDOSSNUDOSS                        INTEGER  I000100018R0000
0016AZD0000000001AH002AHSOCDOSSOCDOS                        CHAR     X000030028R0000
0016AZD0000000001AH003AHPGPDOSPGPDOS                        INTEGER  I000100031R0000
0016AZD0000000001AH004AHCDTYCACDTYCA                        CHAR     X000020041R0000
0016AZD0000000001AH005AHCDREGUCDREGU                        CHAR     X000030043R0000
0016AZD0000000001AH006AHCDASSICDASSI                        CHAR     X000030046R0000
0016AZD0000000001AH007AHTEMARSTEMARS                        CHAR     X000010049R0000
0016AZD0000000001AH008AHMTARSAMTARSA                        DECIMAL  9400100050R0000
0016AZD0000000001AH009AHTEMARPTEMARP                        CHAR     X000010060R0000
0016AZD0000000001AH010AHMTARPAMTARPA                        DECIMAL  9400100061R0000
0016AZD0000000001AH011AHRGCALCRGCALC                        DECIMAL  9000040071R0000
0016AZD0000000001AH012AHTEPAISTEPAIS                        CHAR     X000010075R0000
0016AZD0000000001AH013AHTENATUTENATU                        CHAR     X000010076R0000
0016AZD0000000001AH014AHNUMINDNUMIND                        CHAR     X000010077R0000
0016AZD0000000001AH015AHTESOURTESOUR                        CHAR     X000010078R0000
0016AZD0000000001AH016AHCDPECACDPECA                        CHAR     X000010079R0000
0016AZD0000000001AH017AHTETYPRTETYPR                        CHAR     X000010080R0000
0016AZD0000000001AH018AHCDUNPRCDUNPR                        CHAR     X000020081R0000
0016AZD0000000001AH019AHTEMRAPTEMRAP                        CHAR     X000010083R0000
0016AZD0000000001AH020AHCDRUMACDRUMA                        CHAR     X000030084R0000
0016AZD0000000001AH021AHNATMAXNATMAX                        CHAR     X000010087R0000
0016AZD0000000001AH022AHCDREGRCDREGR                        CHAR     X000030088R0000
0016AZD0000000001AH023AHARRPROARRPRO                        CHAR     X000010091R0000
0016AZD0000000001AH024AHRAPSORRAPSOR                        CHAR     X000010092R0000
0016AZD0000000001AH025AHRTEGSNRTEGSN                        CHAR     X000010093R0000
0016AZD0000000001AH026AHESMULTESMULT                        CHAR     X000010094R0000
0016AZD0000000001AH027AHPAYADVPAYADV                        CHAR     X000010095R0000
0016AZD0000000001AH028AHPIACALPIACAL                        CHAR     X000010096R0000
0016AZD0000000001AH029AHECLBUDECLBUD                        CHAR     X000030097R0000
0016AZD0000000001AH030AHIDGROUIDGROU                        CHAR     X000020100R0000
0016AZD0000000001AH031AHIDARREIDARRE                        CHAR     X000030102R0000
0016AZD0000000001AH032AHFLBNDEFLBNDE                        CHAR     X000010105R0000
0016AZD0000000001AH033AHFLAXESFLAXES                        CHAR     X000010106R0000
0016AZD0000000001AH034AHCDDSPHCDDSPH                        CHAR     X000030107R0000
0016AZD0000000001AH035AHTEMACTTEMACT                        CHAR     X000010110R0000
0016AZD0000000001AH036AHTEMRACTEMRAC                        CHAR     X000010111R0000
0016AZD0000000001AH037AHTEMCACTEMCAC                        CHAR     X000010112R0000
0016AZD0000000001AH038AHTESOMRTESOMR                        CHAR     X000010113R0000
0016AZD0000000001AH039AHCDSOMRCDSOMR                        CHAR     X000030114R0000
0016AZD0000000001AH040AHTEMCPNTEMCPN                        CHAR     X000010117R0000
0016AZD0000000001AH041AHTEMCPSTEMCPS                        CHAR     X000010118R0000
0016AZD0000000001AH042AHFODEDFFODEDF                        CHAR     X000010119R0000
0016AZD0000000001AH043AHFLTAG1FLTAG1                        CHAR     X000010120R0000
0016AZD0000000001AH044AHFLTAG2FLTAG2                        CHAR     X000010121R0000
0016AZD0000000001AH045AHIDPLANIDPLAN                        CHAR     X000100122R0000
0016AZD0000000001AH046AHFLMQYDFLMQYD                        CHAR     X000010132R0000
0016AZD0000000001AH047AHFLQUANFLQUAN                        CHAR     X000010133R0000
0016AZD0000000001AH048AHFLBASEFLBASE                        CHAR     X000010134R0000
0016AZD0000000001AH049AHFLMNEEFLMNEE                        CHAR     X000010135R0000
0016AZD0000000001AH050AHFLMNERFLMNER                        CHAR     X000010136R0000
0016AZD0000000001AH051AHFLCALNFLCALN                        CHAR     X000010137R0000
0016AZD0000000001AH052AHFLFISCFLFISC                        CHAR     X000010138R0000
0016AZD0000000001AH053AHFLLIFEFLLIFE                        CHAR     X000010139R0000
0016AZD0000000001AH054AHFLINCPFLINCP                        CHAR     X000010140R0000
0016AZD0000000001AH055AHNBPAYPNBPAYP                        DECIMAL  9000050141R0000
0016AZD0000000001AH056AHRTEPTARTEPTA                        CHAR     X000010146R0000
0016AZD0000000001AH057AHRTENTGRTENTG                        CHAR     X000010147R0000
0016AZD0000000001AH058AHRAPRETRAPRET                        CHAR     X000010148R0000
0016AZD0000000001AH059AHIDGARNIDGARN                        CHAR     X000060149R0000
0016AZD0000000001AH060AHFLTSUPFLTSUP                        CHAR     X000010155R0000
0016AZD0000000001AH061AHFLFEESFLFEES                        CHAR     X000010156R0000
0016AZD0000000001AH062AHFLMERGFLMERG                        CHAR     X000010157R0000
0016AZD0000000001AH063AHSTEP2PSTEP2P                        CHAR     X000010158R0000
0016AZD0000000001AH064AHFLTAXCFLTAXC                        CHAR     X000010159R0000
0016AZD0000000001AH065AHTAXPAYTAXPAY                        CHAR     X000030160R0000
0016AZD0000000001AH066AHPEVCOTPEVCOT                        CHAR     X000080163R0000
0035DZD0002190881AH000+000219088VXR+00000000000   A84P+000000100P+000000100+000 0  B0  1       N1             0   0001   00              0000    +0000  0                      X
0018DZD0002190881*2000+000219088+000000000AH2018-07-04-11.19.110        +00001+000000+000000X
0016AZD0000000001AO001AONUDOSSNUDOSS                        INTEGER  I000100018R0000
0016AZD0000000001AO002AOSOCDOSSOCDOS                        CHAR     X000030028R0000
0016AZD0000000001AO003AOPGPDOSPGPDOS                        INTEGER  I000100031R0000
0016AZD0000000001AO004AONUORGANUORGA                        CHAR     X000080041R0000
0016AZD0000000001AO005AOCDCOMPCDCOMP                        CHAR     X000080049R0000
0016AZD0000000001AO006AOTEJOU1TEJOU1                        CHAR     X000010057R0000
0016AZD0000000001AO007AOTEJOU2TEJOU2                        CHAR     X000010058R0000
0016AZD0000000001AO008AOTEJOU3TEJOU3                        CHAR     X000010059R0000
0016AZD0000000001AO009AOTEJOU4TEJOU4                        CHAR     X000010060R0000
0016AZD0000000001AO010AOTEJOU5TEJOU5                        CHAR     X000010061R0000
0016AZD0000000001AO011AOTEJOU6TEJOU6                        CHAR     X000010062R0000
0016AZD0000000001AO012AOTEJOU7TEJOU7                        CHAR     X000010063R0000
0016AZD0000000001AO013AORGPOSJRGPOSJ                        CHAR     X000020064R0000
0016AZD0000000001AO014AOTECALPTECALP                        CHAR     X000010066R0000
0016AZD0000000001AO015AOTECALMTECALM                        CHAR     X000010067R0000
0016AZD0000000001AO016AOTECALITECALI                        CHAR     X000010068R0000
0016AZD0000000001AO017AOTECALQTECALQ                        CHAR     X000010069R0000
0016AZD0000000001AO018AOTECALDTECALD                        CHAR     X000010070R0000
0016AZD0000000001AO019AOTECALBTECALB                        CHAR     X000010071R0000
0016AZD0000000001AO020AOTECALTTECALT                        CHAR     X000010072R0000
0016AZD0000000001AO021AOTEBULQTEBULQ                        CHAR     X000010073R0000
0016AZD0000000001AO022AOTEBULDTEBULD                        DECIMAL  9000020074R0000
0016AZD0000000001AO023AOTEBULTTEBULT                        CHAR     X000010076R0000
0016AZD0000000001AO024AOTEBULMTEBULM                        CHAR     X000010077R0000
0016AZD0000000001AO025AORGPOSBRGPOSB                        CHAR     X000020078R0000
0016AZD0000000001AO026AORGPOSARGPOSA                        CHAR     X000020080R0000
0016AZD0000000001AO027AOTEAPRPTEAPRP                        CHAR     X000010082R0000
0016AZD0000000001AO028AOTEAPARTEAPAR                        CHAR     X000010083R0000
0016AZD0000000001AO029AOTEZY8KTEZY8K                        CHAR     X000010084R0000
0016AZD0000000001AO030AORGPOSERGPOSE                        CHAR     X000020085R0000
0016AZD0000000001AO031AOTEMONTTEMONT                        CHAR     X000010087R0000
0016AZD0000000001AO032AOTOLERATOLERA                        DECIMAL  N200060088R0000
0016AZD0000000001AO033AOTECOMPTECOMP                        CHAR     X000010094R0000
0016AZD0000000001AO034AOIDFRPYIDFRPY                        CHAR     X000080095R0000
0016AZD0000000001AO035AOMEMO01MEMO01                        CHAR     X000150103R0000
0016AZD0000000001AO036AOMEMO02MEMO02                        CHAR     X000150118R0000
0016AZD0000000001AO037AOMEMO03MEMO03                        CHAR     X000080133R0000
0016AZD0000000001AO038AOMEMO04MEMO04                        CHAR     X000080141R0000
0016AZD0000000001AO039AOMEMO05MEMO05                        CHAR     X000050149R0000
0016AZD0000000001AO040AOMEMO06MEMO06                        CHAR     X000050154R0000
0016AZD0000000001AO041AOMEMO07MEMO07                        CHAR     X000050159R0000
0016AZD0000000001AO042AOMEMO08MEMO08                        CHAR     X000050164R0000
0016AZD0000000001AO043AOMEMO09MEMO09                        CHAR     X000030169R0000
0016AZD0000000001AO044AOMEMO10MEMO10                        CHAR     X000030172R0000
0016AZD0000000001AO045AOMEMO11MEMO11                        CHAR     X000030175R0000
0016AZD0000000001AO046AOTEEDITTEEDIT                        CHAR     X000010178R0000
0016AZD0000000001AO047AOFLBO10FLBO10                        CHAR     X000010179R0000
0016AZD0000000001AO048AOFLBO11FLBO11                        CHAR     X000010180R0000
0016AZD0000000001AO049AOFLBO12FLBO12                        CHAR     X000010181R0000
0016AZD0000000001AO050AOFLCO12FLCO12                        CHAR     X000010182R0000
0016AZD0000000001AO051AOFLSQW1FLSQW1                        CHAR     X000010183R0000
0016AZD0000000001AO052AOFLSQW2FLSQW2                        CHAR     X000010184R0000
0016AZD0000000001AO053AOCDINFOCDINFO                        CHAR     X000020185R0000
0016AZD0000000001AO054AOPOSAGRPOSAGR                        CHAR     X000020187R0000
0038DZD0002190881AO000+000219088VXR+000000000                                Q+1TM    000  X+000001                                                                                   1          X
0018DZD0002190881*2000+000219088+000000000AO2018-07-04-11.19.110        +00001+000000+000000X
0016AZD0000000001BA001BANUDOSSNUDOSS                        INTEGER  I000100018R0000
0016AZD0000000001BA002BANULIGNNULIGN                        INTEGER  I000070028R0000
0016AZD0000000001BA003BASOCDOSSOCDOS                        CHAR     X000030035R0000
0016AZD0000000001BA004BAPGPDOSPGPDOS                        INTEGER  I000100038R0000
0016AZD0000000001BA005BANUMELINUMELI                        CHAR     X000080048R1000
0016AZD0000000001BA006BACOMMENCOMMEN                        CHAR     X000630056R0000
0024DZD0002190881BA000+000219088+000001VXR+000000000FONCTI01PLAFOND DE SÉCURITÉ SOCIALE                                    X
0024DZD0002190881BA000+000219088+000002VXR+000000000UTIL01  UTILISÉE DANS LE CALCUL DU SEUIL DE RÉINTÉGRATION SOCIALE      X
0024DZD0002190881BA000+000219088+000003VXR+000000000UTIL02  DE LA PRÉVOYANCE                                               X
0018DZD0002190881*2000+000219088+000000000BA2018-07-04-11.19.110        +00003+000003+000000X
0025DZD000219847000000+000219847VXR+000000000VXRDRCG77            A                              0001-01-012999-12-31+000000000X
0062DZD0002198471*1000+000219847VXR+00000000000001-01-01-00.00.002018-07-04-11.19.11DRC0001-01-01-00.00.00                                                                                                                                                                                                              X
0018DZD0002198471*2000+000219847+000000000002018-07-04-11.19.110        +00001+000000+000000X
0176DZD000219847101000+000219847F+000001VXR+000000000Récup.soumis SS cumulé hors réintég.sociale  Réc.soumis SS cum.                                                                                                                                                                                                                                                                                                                                                                                                                                                                                                                                                                                                                                                                                                                                                                                           X
0018DZD0002198471*2000+000219847+000000000012018-07-04-11.19.110        +00001+000001+000000X
0016DZD000219847121000+000219847+000001VXR+000000000FRCATEGORY     FRPREINTEGSOC  X
0018DZD0002198471*2000+000219847+000000000212018-07-04-11.19.110        +00001+000001+000000X
0074DZD00021984719R000+000219847+000057VXR+000000000ZDCOM|DLA|FRCATEGORY                                                                                                                                                                                       ZD+000000000TReferenceAmount-FR-FR-FR                         TQualifierType                                    IAX
0074DZD00021984719R000+000219847+000058VXR+000000000ZDCOM|UCA|FRPREINTEGSOC                                                                                                                                                                                    ZD+000000000TReferenceAmount-FR-FR-FR                         TQualifier                                        IAX
0074DZD00021984719R000+000219847+000059VXR+000000000ZDVXR|DRA|MT                                                                                                                                                                                               ZD+000000000TReferenceAmount-FR-FR-FR                         TPayrollProfile                                   IAX
0074DZD00021984719R000+000219847+000060VXR+000000000ZDVXR|DSA|077                                                                                                                                                                                             CZD+000000000TReferenceAmount-FR-FR-FR                         TCarryOverAmount                                  IAX
0018DZD0002198471*2000+000219847+0000000009R2018-07-04-11.19.110        +00004+000060+000000X
0035DZD0002198471AH000+000219847VXR+00000000020      P+000000100P+000000100+000 1  B0          N1             0   0001   00              0000    +0000  0                      X
0018DZD0002198471*2000+000219847+000000000AH2018-07-04-11.19.110        +00001+000000+000000X
0038DZD0002198471AO000+000219847VXR+000000000                                Q+1TM    000  X+000001                                                                                   1          X
0018DZD0002198471*2000+000219847+000000000AO2018-07-04-11.19.110        +00001+000000+000000X
0016AZD0000000001AZ001AZNUDOSSNUDOSS                        INTEGER  I000100018R0000
0016AZD0000000001AZ002AZNULIGNNULIGN                        INTEGER  I000070028R0000
0016AZD0000000001AZ003AZNULIGSNULIGS                        INTEGER  I000070035R0000
0016AZD0000000001AZ004AZNULIGPNULIGP                        INTEGER  I000070042R0000
0016AZD0000000001AZ005AZTEACTITEACTI                        CHAR     X000010049R0000
0016AZD0000000001AZ006AZSOCDOSSOCDOS                        CHAR     X000030050R0000
0016AZD0000000001AZ007AZPGPDOSPGPDOS                        INTEGER  I000100053R0000
0016AZD0000000001AZ008AZFREQUEFREQUE                        CHAR     X000020063R1000
0016AZD0000000001AZ009AZDATXXXDATXXX                        DATE     Q000100065R0000
0016AZD0000000001AZ010AZDAEFF DAEFF                         DATE     Q000100075R1000
0016AZD0000000001AZ011AZTEMLISTEMLIS                        CHAR     X000010085R0000
0016AZD0000000001AZ012AZCDPE01CDPE01                        CHAR     X000020086R0000
0016AZD0000000001AZ013AZCDPE02CDPE02                        CHAR     X000020088R0000
0016AZD0000000001AZ014AZCDPE03CDPE03                        CHAR     X000020090R0000
0016AZD0000000001AZ015AZCDPE04CDPE04                        CHAR     X000020092R0000
0016AZD0000000001AZ016AZCDPE05CDPE05                        CHAR     X000020094R0000
0016AZD0000000001AZ017AZCDPE06CDPE06                        CHAR     X000020096R0000
0016AZD0000000001AZ018AZCDPE07CDPE07                        CHAR     X000020098R0000
0016AZD0000000001AZ019AZCDPE08CDPE08                        CHAR     X000020100R0000
0016AZD0000000001AZ020AZCDPE09CDPE09                        CHAR     X000020102R0000
0016AZD0000000001AZ021AZCDPE10CDPE10                        CHAR     X000020104R0000
0016AZD0000000001AZ022AZCDPE11CDPE11                        CHAR     X000020106R0000
0016AZD0000000001AZ023AZCDPE12CDPE12                        CHAR     X000020108R0000
0016AZD0000000001AZ024AZCDPE13CDPE13                        CHAR     X000020110R0000
0016AZD0000000001AZ025AZCDPE14CDPE14                        CHAR     X000020112R0000
0016AZD0000000001AZ026AZCDPE15CDPE15                        CHAR     X000020114R0000
0016AZD0000000001AZ027AZCDPE16CDPE16                        CHAR     X000020116R0000
0016AZD0000000001AZ028AZCDPE17CDPE17                        CHAR     X000020118R0000
0016AZD0000000001AZ029AZCDPE18CDPE18                        CHAR     X000020120R0000
0016AZD0000000001AZ030AZCDPE19CDPE19                        CHAR     X000020122R0000
0016AZD0000000001AZ031AZCDPE20CDPE20                        CHAR     X000020124R0000
0016AZD0000000001AZ032AZCDPE21CDPE21                        CHAR     X000020126R0000
0016AZD0000000001AZ033AZCDPE22CDPE22                        CHAR     X000020128R0000
0016AZD0000000001AZ034AZCDPE23CDPE23                        CHAR     X000020130R0000
0016AZD0000000001AZ035AZCDPE24CDPE24                        CHAR     X000020132R0000
0016AZD0000000001AZ036AZCDPE25CDPE25                        CHAR     X000020134R0000
0016AZD0000000001AZ037AZCDPE26CDPE26                        CHAR     X000020136R0000
0016AZD0000000001AZ038AZCDPE27CDPE27                        CHAR     X000020138R0000
0016AZD0000000001AZ039AZCDPE28CDPE28                        CHAR     X000020140R0000
0016AZD0000000001AZ040AZCDPE29CDPE29                        CHAR     X000020142R0000
0016AZD0000000001AZ041AZCDPE30CDPE30                        CHAR     X000020144R0000
0030DZD0002198471AZ000+000219847+000001+000000+0000003VXR+000000000MT2999-12-312018-01-01101                                                          X
0018DZD0002198471*2000+000219847+000000000AZ2018-07-04-11.19.110        +00001+000001+000001X
0024DZD0002198471BA000+000219847+000001VXR+000000000DECLEN01DÉCLENCHÉE PAR LE REGROUPEMENT GÉNÉRAL                         X
0024DZD0002198471BA000+000219847+000002VXR+000000000FONCTI01RÉCUPÉRATION RÉMUNÉRATION BRUTE HORS RÉINTÉGRATION SOCIALE     X
0024DZD0002198471BA000+000219847+000003VXR+000000000UTIL01  UTILISÉE DANS LE CALCUL DU SEUIL DE RÉINTÉGRATION SOCIALE      X
0024DZD0002198471BA000+000219847+000004VXR+000000000UTIL02  DE LA PRÉVOYANCE                                               X
0018DZD0002198471*2000+000219847+000000000BA2018-07-04-11.19.110        +00004+000004+000000X
0016AZD0000000001CP001CPNUDOSSNUDOSS                        INTEGER  I000100018R0000
0016AZD0000000001CP002CPNULIGNNULIGN                        INTEGER  I000070028R0000
0016AZD0000000001CP003CPNULIGSNULIGS                        INTEGER  I000070035R0000
0016AZD0000000001CP004CPNULIGPNULIGP                        INTEGER  I000070042R0000
0016AZD0000000001CP005CPTEACTITEACTI                        CHAR     X000010049R0000
0016AZD0000000001CP006CPSOCDOSSOCDOS                        CHAR     X000030050R0000
0016AZD0000000001CP007CPPGPDOSPGPDOS                        INTEGER  I000100053R0000
0016AZD0000000001CP008CPDATXXXDATXXX                        DATE     Q000100063R0000
0016AZD0000000001CP009CPDAEFF DAEFF                         DATE     Q000100073R1000
0016AZD0000000001CP010CPCDTYCACDTYCA                        CHAR     X000020083R0000
0016AZD0000000001CP011CPCDASSICDASSI                        CHAR     X000030085R0000
0016AZD0000000001CP012CPCDREGUCDREGU                        CHAR     X000030088R0000
0016AZD0000000001CP013CPNBEN01NBEN01                        DECIMAL  9000040091R0000
0016AZD0000000001CP014CPNBEN02NBEN02                        DECIMAL  9000040095R0000
0016AZD0000000001CP015CPNBEN03NBEN03                        DECIMAL  9000040099R0000
0016AZD0000000001CP016CPCDMOT1CDMOT1                        CHAR     X000080103R0000
0016AZD0000000001CP017CPTYENT1TYENT1                        CHAR     X000010111R0000
0016AZD0000000001CP018CPCDENT1CDENT1                        CHAR     X000030112R0000
0016AZD0000000001CP019CPMONTA1MONTA1                        DECIMAL  N300120115R0000
0016AZD0000000001CP020CPCDMOT2CDMOT2                        CHAR     X000080127R0000
0016AZD0000000001CP021CPTYENT2TYENT2                        CHAR     X000010135R0000
0016AZD0000000001CP022CPCDENT2CDENT2                        CHAR     X000030136R0000
0016AZD0000000001CP023CPMONTA2MONTA2                        DECIMAL  N300120139R0000
0016AZD0000000001CP024CPCDMOT3CDMOT3                        CHAR     X000080151R0000
0016AZD0000000001CP025CPTYENT3TYENT3                        CHAR     X000010159R0000
0016AZD0000000001CP026CPCDENT3CDENT3                        CHAR     X000030160R0000
0016AZD0000000001CP027CPMONTA3MONTA3                        DECIMAL  N300120163R0000
0016AZD0000000001CP028CPTEZERMTEZERM                        CHAR     X000010175R0000
0016AZD0000000001CP029CPCDMOT4CDMOT4                        CHAR     X000080176R0000
0016AZD0000000001CP030CPTYENT4TYENT4                        CHAR     X000010184R0000
0016AZD0000000001CP031CPCDENT4CDENT4                        CHAR     X000030185R0000
0016AZD0000000001CP032CPMONTA4MONTA4                        DECIMAL  N300120188R0000
0016AZD0000000001CP033CPCDMOT5CDMOT5                        CHAR     X000080200R0000
0016AZD0000000001CP034CPTYENT5TYENT5                        CHAR     X000010208R0000
0016AZD0000000001CP035CPCDENT5CDENT5                        CHAR     X000030209R0000
0016AZD0000000001CP036CPMONTA5MONTA5                        DECIMAL  N300120212R0000
0016AZD0000000001CP037CPCDMOT6CDMOT6                        CHAR     X000080224R0000
0016AZD0000000001CP038CPTYENT6TYENT6                        CHAR     X000010232R0000
0016AZD0000000001CP039CPCDENT6CDENT6                        CHAR     X000030233R0000
0016AZD0000000001CP040CPMONTA6MONTA6                        DECIMAL  N300120236R0000
0016AZD0000000001CP041CPCDMOT7CDMOT7                        CHAR     X000080248R0000
0016AZD0000000001CP042CPTYENT7TYENT7                        CHAR     X000010256R0000
0016AZD0000000001CP043CPCDENT7CDENT7                        CHAR     X000030257R0000
0016AZD0000000001CP044CPMONTA7MONTA7                        DECIMAL  N300120260R0000
0016AZD0000000001CP045CPCDMOT8CDMOT8                        CHAR     X000080272R0000
0016AZD0000000001CP046CPTYENT8TYENT8                        CHAR     X000010280R0000
0016AZD0000000001CP047CPCDENT8CDENT8                        CHAR     X000030281R0000
0016AZD0000000001CP048CPMONTA8MONTA8                        DECIMAL  N300120284R0000
0016AZD0000000001CP049CPCDMOT9CDMOT9                        CHAR     X000080296R0000
0016AZD0000000001CP050CPTYENT9TYENT9                        CHAR     X000010304R0000
0016AZD0000000001CP051CPCDENT9CDENT9                        CHAR     X000030305R0000
0016AZD0000000001CP052CPMONTA9MONTA9                        DECIMAL  N300120308R0000
0016AZD0000000001CP053CPCDMO10CDMO10                        CHAR     X000080320R0000
0016AZD0000000001CP054CPTYEN10TYEN10                        CHAR     X000010328R0000
0016AZD0000000001CP055CPCDEN10CDEN10                        CHAR     X000030329R0000
0016AZD0000000001CP056CPMONT10MONT10                        DECIMAL  N300120332R0000
0016AZD0000000001CP057CPFORLIBFORLIB                        CHAR     X000570344R0000
0016AZD0000000001CP058CPLICON LICON                         VARCHAR  V006340401R0000
0082DZD0002198471CP000+000219847+000001+000000+0000003VXR+0000000002999-12-312018-01-0120      +000+000+000        G077+00000000000            +00000000000            +00000000000             +00000000000            +00000000000            +00000000000            +00000000000            +00000000000            +00000000000            +00000000000                                                         0001 X
0018DZD0002198471*2000+000219847+000000000CP2018-07-04-11.19.110        +00001+000001+000001X
0025DZD000219850000000+000219850VXR+000000000VXRDRCG78            A                              0001-01-012999-12-31+000000000X
0062DZD0002198501*1000+000219850VXR+00000000000001-01-01-00.00.002018-07-04-11.19.11DRC0001-01-01-00.00.00                                                                                                                                                                                                              X
0018DZD0002198501*2000+000219850+000000000002018-07-04-11.19.110        +00001+000000+000000X
0176DZD000219850101000+000219850F+000001VXR+000000000Récupération réintégration sociale prév.cum. Réc.réint.soc.prév                                                                                                                                                                                                                                                                                                                                                                                                                                                                                                                                                                                                                                                                                                                                                                                           X
0018DZD0002198501*2000+000219850+000000000012018-07-04-11.19.110        +00001+000001+000000X
0016DZD000219850121000+000219850+000001VXR+000000000FRCATEGORY     FRPREINTEGSOC  X
0018DZD0002198501*2000+000219850+000000000212018-07-04-11.19.110        +00001+000001+000000X
0074DZD00021985019R000+000219850+000057VXR+000000000ZDCOM|DLA|FRCATEGORY                                                                                                                                                                                       ZD+000000000TReferenceAmount-FR-FR-FR                         TQualifierType                                    IAX
0074DZD00021985019R000+000219850+000058VXR+000000000ZDCOM|UCA|FRPREINTEGSOC                                                                                                                                                                                    ZD+000000000TReferenceAmount-FR-FR-FR                         TQualifier                                        IAX
0074DZD00021985019R000+000219850+000059VXR+000000000ZDVXR|DRA|MT                                                                                                                                                                                               ZD+000000000TReferenceAmount-FR-FR-FR                         TPayrollProfile                                   IAX
0074DZD00021985019R000+000219850+000060VXR+000000000ZDVXR|DSA|078                                                                                                                                                                                             CZD+000000000TReferenceAmount-FR-FR-FR                         TCarryOverAmount                                  IAX
0018DZD0002198501*2000+000219850+0000000009R2018-07-04-11.19.110        +00004+000060+000000X
0035DZD0002198501AH000+000219850VXR+00000000020      P+000000100P+000000100+000 1  B0          N1             0   0001   00              0000    +0000  0                      X
0018DZD0002198501*2000+000219850+000000000AH2018-07-04-11.19.110        +00001+000000+000000X
0038DZD0002198501AO000+000219850VXR+000000000                                Q+1TM    000  X+000001                                                                                   1          X
0018DZD0002198501*2000+000219850+000000000AO2018-07-04-11.19.110        +00001+000000+000000X
0030DZD0002198501AZ000+000219850+000001+000000+0000003VXR+000000000MT2999-12-312018-01-01101                                                          X
0018DZD0002198501*2000+000219850+000000000AZ2018-07-04-11.19.110        +00001+000001+000001X
0024DZD0002198501BA000+000219850+000001VXR+000000000DECLEN01DÉCLENCHÉE PAR LE REGROUPEMENT GÉNÉRAL                         X
0024DZD0002198501BA000+000219850+000002VXR+000000000FONCTI01RÉCUPÉRATION RÉINTÉGRATION SOCIALE PRÉVOYANCE COMPLÉMENTAIRE   X
0024DZD0002198501BA000+000219850+000003VXR+000000000UTIL01  UTILISÉE DANS LE CALCUL DE LA RÉINTÉGRATION SOCIALE PRÉVOYANCE X
0018DZD0002198501*2000+000219850+000000000BA2018-07-04-11.19.110        +00003+000003+000000X
0082DZD0002198501CP000+000219850+000001+000000+0000003VXR+0000000002999-12-312018-01-0120      +000+000+000        G078+00000000000            +00000000000            +00000000000             +00000000000            +00000000000            +00000000000            +00000000000            +00000000000            +00000000000            +00000000000                                                         0001 X
0018DZD0002198501*2000+000219850+000000000CP2018-07-04-11.19.110        +00001+000001+000001X
0025DZD000219856000000+000219856VXR+000000000VXRDRCG79            A                              0001-01-012999-12-31+000000000X
0062DZD0002198561*1000+000219856VXR+00000000000001-01-01-00.00.002018-07-04-11.19.11DRC0001-01-01-00.00.00                                                                                                                                                                                                              X
0018DZD0002198561*2000+000219856+000000000002018-07-04-11.19.110        +00001+000000+000000X
0176DZD000219856101000+000219856F+000001VXR+000000000Récupération cotis.patro.prév.compl.cumulées Réc.cotis.prév.cum                                                                                                                                                                                                                                                                                                                                                                                                                                                                                                                                                                                                                                                                                                                                                                                           X
0018DZD0002198561*2000+000219856+000000000012018-07-04-11.19.110        +00001+000001+000000X
0016DZD000219856121000+000219856+000001VXR+000000000FRCATEGORY     FRPREINTEGSOC  X
0018DZD0002198561*2000+000219856+000000000212018-07-04-11.19.110        +00001+000001+000000X
0074DZD00021985619R000+000219856+000057VXR+000000000ZDCOM|DLA|FRCATEGORY                                                                                                                                                                                       ZD+000000000TReferenceAmount-FR-FR-FR                         TQualifierType                                    IAX
0074DZD00021985619R000+000219856+000058VXR+000000000ZDCOM|UCA|FRPREINTEGSOC                                                                                                                                                                                    ZD+000000000TReferenceAmount-FR-FR-FR                         TQualifier                                        IAX
0074DZD00021985619R000+000219856+000059VXR+000000000ZDVXR|DRA|MT                                                                                                                                                                                               ZD+000000000TReferenceAmount-FR-FR-FR                         TPayrollProfile                                   IAX
0074DZD00021985619R000+000219856+000060VXR+000000000ZDVXR|DSA|079                                                                                                                                                                                             CZD+000000000TReferenceAmount-FR-FR-FR                         TCarryOverAmount                                  IAX
0018DZD0002198561*2000+000219856+0000000009R2018-07-04-11.19.110        +00004+000060+000000X
0035DZD0002198561AH000+000219856VXR+00000000020      P+000000100P+000000100+000 1  B0          N1             0   0001   00              0000    +0000  0                      X
0018DZD0002198561*2000+000219856+000000000AH2018-07-04-11.19.110        +00001+000000+000000X
0038DZD0002198561AO000+000219856VXR+000000000                                Q+1TM    000  X+000001                                                                                   1          X
0018DZD0002198561*2000+000219856+000000000AO2018-07-04-11.19.110        +00001+000000+000000X
0030DZD0002198561AZ000+000219856+000001+000000+0000003VXR+000000000MT2999-12-312018-01-01101                                                          X
0018DZD0002198561*2000+000219856+000000000AZ2018-07-04-11.19.110        +00001+000001+000001X
0024DZD0002198561BA000+000219856+000001VXR+000000000DECLEN01DÉCLENCHÉE PAR LE REGROUPEMENT GÉNÉRAL                         X
0024DZD0002198561BA000+000219856+000002VXR+000000000FONCTI01RÉCUPÉRATION COTISATIONS PATRONALES PRÉVOYANCE COMPLÉMENTAIRE  X
0024DZD0002198561BA000+000219856+000003VXR+000000000UTIL01  UTILISÉE DANS LE CALCUL DE LA RÉINTÉGRATION SOCIALE PRÉVOYANCE X
0018DZD0002198561*2000+000219856+000000000BA2018-07-04-11.19.110        +00003+000003+000000X
0082DZD0002198561CP000+000219856+000001+000000+0000003VXR+0000000002999-12-312018-01-0120      +000+000+000        G079+00000000000            +00000000000            +00000000000             +00000000000            +00000000000            +00000000000            +00000000000            +00000000000            +00000000000            +00000000000                                                         0001 X
0018DZD0002198561*2000+000219856+000000000CP2018-07-04-11.19.110        +00001+000001+000001X
0025DZD000219866000000+000219866VXR+000000000VXRDRCG84            A                              0001-01-012999-12-31+000000000X
0062DZD0002198661*1000+000219866VXR+00000000000001-01-01-00.00.002018-07-04-11.19.11DRC0001-01-01-00.00.00                                                                                                                                                                                                              X
0018DZD0002198661*2000+000219866+000000000002018-07-04-11.19.110        +00001+000000+000000X
0176DZD000219866101000+000219866F+000001VXR+000000000Récupération plafond sécurité sociale cumulé Récup.plaf.SS cum.                                                                                                                                                                                                                                                                                                                                                                                                                                                                                                                                                                                                                                                                                                                                                                                           X
0018DZD0002198661*2000+000219866+000000000012018-07-04-11.19.110        +00001+000001+000000X
0016DZD000219866121000+000219866+000001VXR+000000000FRCATEGORY     FRPREINTEGSOC  X
0018DZD0002198661*2000+000219866+000000000212018-07-04-11.19.110        +00001+000001+000000X
0074DZD00021986619R000+000219866+000057VXR+000000000ZDCOM|DLA|FRCATEGORY                                                                                                                                                                                       ZD+000000000TReferenceAmount-FR-FR-FR                         TQualifierType                                    IAX
0074DZD00021986619R000+000219866+000058VXR+000000000ZDCOM|UCA|FRPREINTEGSOC                                                                                                                                                                                    ZD+000000000TReferenceAmount-FR-FR-FR                         TQualifier                                        IAX
0074DZD00021986619R000+000219866+000059VXR+000000000ZDVXR|DRA|MT                                                                                                                                                                                               ZD+000000000TReferenceAmount-FR-FR-FR                         TPayrollProfile                                   IAX
0074DZD00021986619R000+000219866+000060VXR+000000000ZDVXR|DSA|084                                                                                                                                                                                             CZD+000000000TReferenceAmount-FR-FR-FR                         TCarryOverAmount                                  IAX
0018DZD0002198661*2000+000219866+0000000009R2018-07-04-11.19.110        +00004+000060+000000X
0035DZD0002198661AH000+000219866VXR+00000000020      P+000000100P+000000100+000 1  B0          N1             0   0001   00              0000    +0000  0                      X
0018DZD0002198661*2000+000219866+000000000AH2018-07-04-11.19.110        +00001+000000+000000X
0038DZD0002198661AO000+000219866VXR+000000000                                Q+1TM    000  X+000001                                                                                   1          X
0018DZD0002198661*2000+000219866+000000000AO2018-07-04-11.19.110        +00001+000000+000000X
0030DZD0002198661AZ000+000219866+000001+000000+0000003VXR+000000000MT2999-12-312018-01-01101                                                          X
0018DZD0002198661*2000+000219866+000000000AZ2018-07-04-11.19.110        +00001+000001+000001X
0024DZD0002198661BA000+000219866+000001VXR+000000000DECLEN01DÉCLENCHÉE PAR LE REGROUPEMENT GÉNÉRAL                         X
0024DZD0002198661BA000+000219866+000002VXR+000000000FONCTI01RÉCUPÉRATION PLAFOND DE SÉCURITÉ SOCIALE                       X
0024DZD0002198661BA000+000219866+000003VXR+000000000UTIL01  UTILISÉE DANS LE CALCUL DU SEUIL DE RÉINTÉGRATION SOCIALE      X
0024DZD0002198661BA000+000219866+000004VXR+000000000UTIL02  DE LA PRÉVOYANCE                                               X
0018DZD0002198661*2000+000219866+000000000BA2018-07-04-11.19.110        +00004+000004+000000X
0082DZD0002198661CP000+000219866+000001+000000+0000003VXR+0000000002999-12-312018-01-0120      +000+000+000        G084+00000000000            +00000000000            +00000000000             +00000000000            +00000000000            +00000000000            +00000000000            +00000000000            +00000000000            +00000000000                                                         0001 X
0018DZD0002198661*2000+000219866+000000000CP2018-07-04-11.19.110        +00001+000001+000001X
0025DZD000219112000000+000219112VXR+000000000VXRDRCL84            A                              0001-01-012999-12-31+000000000X
0062DZD0002191121*1000+000219112VXR+00000000000001-01-01-00.00.002018-07-04-11.19.11DRC0001-01-01-00.00.00                                                                                                                                                                                                              X
0018DZD0002191121*2000+000219112+000000000002018-07-04-11.19.110        +00001+000000+000000X
0176DZD000219112101000+000219112F+000001VXR+000000000Plafond d'exonération prévoyance comp oblig  Plaf.exo.prév.comp                                                                                                                                                                                                                                                                                                                                                                                                                                                                                                                                                                                                                                                                                                                                                                                           X
0018DZD0002191121*2000+000219112+000000000012018-07-04-11.19.110        +00001+000001+000000X
0016DZD000219112121000+000219112+000001VXR+000000000FRCATEGORY     FRPREINTEGSOC  X
0018DZD0002191121*2000+000219112+000000000212018-07-04-11.19.110        +00001+000001+000000X
0074DZD00021911219R000+000219112+000011VXR+000000000ZDCOM|DLA|FRCATEGORY                                                                                                                                                                                       ZD+000000000TMultiplication-FR-FR-FR                          TQualifierType                                    IAX
0074DZD00021911219R000+000219112+000012VXR+000000000ZDCOM|UCA|FRPREINTEGSOC                                                                                                                                                                                    ZD+000000000TMultiplication-FR-FR-FR                          TQualifier                                        IAX
0074DZD00021911219R000+000219112+000013VXR+000000000ZDVXR|DRC|Z84                                                                                                                                                                                             CZD+000000000TMultiplication-FR-FR-FR                          TPayrollItem                                      IAX
0074DZD00021911219R000+000219112+000014VXR+000000000ZDVXR|DS9|079                                                                                                                                                                                             CZD+000000000TMultiplication-FR-FR-FR                          TConstant                                         IAX
0018DZD0002191121*2000+000219112+0000000009R2018-07-04-11.19.110        +00004+000014+000000X
0035DZD0002191121AH000+000219112VXR+00000000082      P+000000100P+000000100+000 1  B0          N1             0   0001   00              0000    +0000  0                      X
0018DZD0002191121*2000+000219112+000000000AH2018-07-04-11.19.110        +00001+000000+000000X
0038DZD0002191121AO000+000219112VXR+000000000                                Q+1TM    000  X+000001                                                                                   1          X
0018DZD0002191121*2000+000219112+000000000AO2018-07-04-11.19.110        +00001+000000+000000X
0024DZD0002191121BA000+000219112+000001VXR+000000000DECLEN01DÉCLENCHÉE PAR LE REGROUPEMENT GÉNÉRAL                         X
0024DZD0002191121BA000+000219112+000002VXR+000000000FONCTI01PLAFOND D'EXONÉRATION DE PRÉVOYANCE COMPLÉMENTAIRE ANNUALISÉ   X
0024DZD0002191121BA000+000219112+000003VXR+000000000UTIL01  UTILISÉE DANS LE CALCUL DU SEUIL DE RÉINTÉGRATION SOCIALE      X
0024DZD0002191121BA000+000219112+000004VXR+000000000UTIL02  DE LA PRÉVOYANCE                                               X
0018DZD0002191121*2000+000219112+000000000BA2018-07-04-11.19.110        +00004+000004+000000X
0082DZD0002191121CP000+000219112+000001+000000+0000003VXR+0000000002999-12-312018-01-0182      +000+000+000        RZ84+00000000000        K079+00000000000            +00000000000             +00000000000            +00000000000            +00000000000            +00000000000            +00000000000            +00000000000            +00000000000                                                         0001 X
0018DZD0002191121*2000+000219112+000000000CP2018-07-04-11.19.110        +00001+000001+000001X
0025DZD000219110000000+000219110VXR+000000000VXRDRCP77            A                              0001-01-012999-12-31+000000000X
0062DZD0002191101*1000+000219110VXR+00000000000001-01-01-00.00.002018-07-04-11.19.11DRC0001-01-01-00.00.00                                                                                                                                                                                                              X
0018DZD0002191101*2000+000219110+000000000002018-07-04-11.19.110        +00001+000000+000000X
0176DZD000219110101000+000219110F+000001VXR+000000000Part rémunération brute annualisée           Part rému.brute                                                                                                                                                                                                                                                                                                                                                                                                                                                                                                                                                                                                                                                                                                                                                                                              X
0018DZD0002191101*2000+000219110+000000000012018-07-04-11.19.110        +00001+000001+000000X
0016DZD000219110121000+000219110+000001VXR+000000000FRCATEGORY     FRPREINTEGSOC  X
0018DZD0002191101*2000+000219110+000000000212018-07-04-11.19.110        +00001+000001+000000X
0074DZD00021911019R000+000219110+000010VXR+000000000ZDCOM|DLA|FRCATEGORY                                                                                                                                                                                       ZD+000000000TMultiplication-FR-FR-FR                          TQualifierType                                    IAX
0074DZD00021911019R000+000219110+000011VXR+000000000ZDCOM|UCA|FRPREINTEGSOC                                                                                                                                                                                    ZD+000000000TMultiplication-FR-FR-FR                          TQualifier                                        IAX
0074DZD00021911019R000+000219110+000012VXR+000000000ZDVXR|DRC|Z77                                                                                                                                                                                             CZD+000000000TMultiplication-FR-FR-FR                          TPayrollItem                                      IAX
0074DZD00021911019R000+000219110+000013VXR+000000000ZDVXR|DS9|074                                                                                                                                                                                             CZD+000000000TMultiplication-FR-FR-FR                          TConstant                                         IAX
0018DZD0002191101*2000+000219110+0000000009R2018-07-04-11.19.110        +00004+000013+000000X
0035DZD0002191101AH000+000219110VXR+00000000082      P+000000100P+000000100+000 1  B0          N1             0   0001   00              0000    +0000  0                      X
0018DZD0002191101*2000+000219110+000000000AH2018-07-04-11.19.110        +00001+000000+000000X
0038DZD0002191101AO000+000219110VXR+000000000                                Q+1TM    000  X+000001                                                                                   1          X
0018DZD0002191101*2000+000219110+000000000AO2018-07-04-11.19.110        +00001+000000+000000X
0024DZD0002191101BA000+000219110+000001VXR+000000000DECLEN01DÉCLENCHÉE PAR LE REGROUPEMENT GÉNÉRAL                         X
0024DZD0002191101BA000+000219110+000002VXR+000000000FONCTI011,5 % DE LA RÉMUNÉRATION BRUTE ANNUALISÉE                      X
0024DZD0002191101BA000+000219110+000003VXR+000000000UTIL01  UTILISÉE DANS LE CALCUL DU SEUIL DE RÉINTÉGRATION SOCIALE      X
0024DZD0002191101BA000+000219110+000004VXR+000000000UTIL02  DE LA PRÉVOYANCE                                               X
0018DZD0002191101*2000+000219110+000000000BA2018-07-04-11.19.110        +00004+000004+000000X
0082DZD0002191101CP000+000219110+000001+000000+0000003VXR+0000000002999-12-312018-01-0182      +000+000+000        RZ77+00000000000        K074+00000000000            +00000000000             +00000000000            +00000000000            +00000000000            +00000000000            +00000000000            +00000000000            +00000000000                                                         0001 X
0018DZD0002191101*2000+000219110+000000000CP2018-07-04-11.19.110        +00001+000001+000001X
0025DZD000219114000000+000219114VXR+000000000VXRDRCP78            A                              0001-01-012999-12-31+000000000X
0062DZD0002191141*1000+000219114VXR+00000000000001-01-01-00.00.002018-07-04-11.19.11DRC0001-01-01-00.00.00                                                                                                                                                                                                              X
0018DZD0002191141*2000+000219114+000000000002018-07-04-11.19.110        +00001+000000+000000X
0176DZD000219114101000+000219114F+000001VXR+000000000Seuil d'exonération prévoyance annualisé     Seuil exo.prév.ann                                                                                                                                                                                                                                                                                                                                                                                                                                                                                                                                                                                                                                                                                                                                                                                           X
0018DZD0002191141*2000+000219114+000000000012018-07-04-11.19.110        +00001+000001+000000X
0016DZD000219114121000+000219114+000001VXR+000000000FRCATEGORY     FRPREINTEGSOC  X
0018DZD0002191141*2000+000219114+000000000212018-07-04-11.19.110        +00001+000001+000000X
0074DZD00021911419R000+000219114+000055VXR+000000000ZDCOM|DLA|FRCATEGORY                                                                                                                                                                                       ZD+000000000TPayrollItemFreeFormula-FR-FR-FR                  TQualifierType                                    IAX
0074DZD00021911419R000+000219114+000056VXR+000000000ZDCOM|UCA|FRPREINTEGSOC                                                                                                                                                                                    ZD+000000000TPayrollItemFreeFormula-FR-FR-FR                  TQualifier                                        IAX
0074DZD00021911419R000+000219114+000057VXR+000000000ZDVXR|DRC|L84                                                                                                                                                                                             CZD+000000000TPayrollItemFreeFormula-FR-FR-FR                  TPayrollItem                                      IAX
0074DZD00021911419R000+000219114+000058VXR+000000000ZDVXR|DRC|P77                                                                                                                                                                                             CZD+000000000TPayrollItemFreeFormula-FR-FR-FR                  TPayrollItem                                      IAX
0074DZD00021911419R000+000219114+000059VXR+000000000ZDVXR|DRC|P84                                                                                                                                                                                             CZD+000000000TPayrollItemFreeFormula-FR-FR-FR                  TPayrollItem                                      IAX
0018DZD0002191141*2000+000219114+0000000009R2018-07-04-11.19.110        +00005+000059+000000X
0035DZD0002191141AH000+000219114VXR+00000000079      P+000000100P+000000100+000 1  B0          N1             0   0001   00              0000    +0000  0                      X
0018DZD0002191141*2000+000219114+000000000AH2018-07-04-11.19.110        +00001+000000+000000X
0038DZD0002191141AO000+000219114VXR+000000000                                Q+1TM    000  X+000001                                                                                   1          X
0018DZD0002191141*2000+000219114+000000000AO2018-07-04-11.19.110        +00001+000000+000000X
0024DZD0002191141BA000+000219114+000001VXR+000000000DECLEN01DÉCLENCHÉE PAR LE REGROUPEMENT GÉNÉRAL                         X
0024DZD0002191141BA000+000219114+000002VXR+000000000FONCTI01SEUIL D'EXONÉRATION DE PRÉVOYANCE COMPLÉMENTAIRE ANNUALISÉ     X
0024DZD0002191141BA000+000219114+000003VXR+000000000UTIL01  UTILISÉE DANS LE CALCUL DE LA RÉINTÉGRATION SOCIALE DE LA      X
0024DZD0002191141BA000+000219114+000004VXR+000000000UTIL02  PRÉVOYANCE                                                     X
0018DZD0002191141*2000+000219114+000000000BA2018-07-04-11.19.110        +00004+000004+000000X
0082DZD0002191141CP000+000219114+000001+000000+0000003VXR+0000000002999-12-312018-01-0179      +000+000+000            +00000000000            +00000000000            +00000000000             +00000000000            +00000000000            +00000000000            +00000000000            +00000000000            +00000000000            +00000000000((RP77 + RP84)<RL84)>0                                   0001 X
0018DZD0002191141*2000+000219114+000000000CP2018-07-04-11.19.110        +00001+000001+000001X
0025DZD000219111000000+000219111VXR+000000000VXRDRCP84            A                              0001-01-012999-12-31+000000000X
0062DZD0002191111*1000+000219111VXR+00000000000001-01-01-00.00.002018-07-04-11.19.11DRC0001-01-01-00.00.00                                                                                                                                                                                                              X
0018DZD0002191111*2000+000219111+000000000002018-07-04-11.19.110        +00001+000000+000000X
0176DZD000219111101000+000219111F+000001VXR+000000000Part plafond de sécurité sociale annualisé   Part plaf.SS ann.                                                                                                                                                                                                                                                                                                                                                                                                                                                                                                                                                                                                                                                                                                                                                                                            X
0018DZD0002191111*2000+000219111+000000000012018-07-04-11.19.110        +00001+000001+000000X
0016DZD000219111121000+000219111+000001VXR+000000000FRCATEGORY     FRPREINTEGSOC  X
0018DZD0002191111*2000+000219111+000000000212018-07-04-11.19.110        +00001+000001+000000X
0074DZD00021911119R000+000219111+000012VXR+000000000ZDCOM|DLA|FRCATEGORY                                                                                                                                                                                       ZD+000000000TMultiplication-FR-FR-FR                          TQualifierType                                    IAX
0074DZD00021911119R000+000219111+000013VXR+000000000ZDCOM|UCA|FRPREINTEGSOC                                                                                                                                                                                    ZD+000000000TMultiplication-FR-FR-FR                          TQualifier                                        IAX
0074DZD00021911119R000+000219111+000014VXR+000000000ZDVXR|DRC|Z84                                                                                                                                                                                             CZD+000000000TMultiplication-FR-FR-FR                          TPayrollItem                                      IAX
0074DZD00021911119R000+000219111+000015VXR+000000000ZDVXR|DS9|073                                                                                                                                                                                             CZD+000000000TMultiplication-FR-FR-FR                          TConstant                                         IAX
0018DZD0002191111*2000+000219111+0000000009R2018-07-04-11.19.110        +00004+000015+000000X
0035DZD0002191111AH000+000219111VXR+00000000082      P+000000100P+000000100+000 1  B0          N1             0   0001   00              0000    +0000  0                      X
0018DZD0002191111*2000+000219111+000000000AH2018-07-04-11.19.110        +00001+000000+000000X
0038DZD0002191111AO000+000219111VXR+000000000                                Q+1TM    000  X+000001                                                                                   1          X
0018DZD0002191111*2000+000219111+000000000AO2018-07-04-11.19.110        +00001+000000+000000X
0024DZD0002191111BA000+000219111+000001VXR+000000000DECLEN01DÉCLENCHÉE PAR LE REGROUPEMENT GÉNÉRAL                         X
0024DZD0002191111BA000+000219111+000002VXR+000000000FONCTI016 % DU PLAFOND DE SÉCURITÉ SOCIALE ANNUALISÉ                   X
0024DZD0002191111BA000+000219111+000003VXR+000000000UTIL01  UTILISÉE DANS LE CALCUL DU SEUIL DE RÉINTÉGRATION SOCIALE      X
0024DZD0002191111BA000+000219111+000004VXR+000000000UTIL02  DE LA PRÉVOYANCE                                               X
0018DZD0002191111*2000+000219111+000000000BA2018-07-04-11.19.110        +00004+000004+000000X
0082DZD0002191111CP000+000219111+000001+000000+0000003VXR+0000000002999-12-312018-01-0182      +000+000+000        RZ84+00000000000        K073+00000000000            +00000000000             +00000000000            +00000000000            +00000000000            +00000000000            +00000000000            +00000000000            +00000000000                                                         0001 X
0018DZD0002191111*2000+000219111+000000000CP2018-07-04-11.19.110        +00001+000001+000001X
0025DZD000219386000000+000219386VXR+000000000VXRDRCRS3            A                              0001-01-012999-12-31+000000000X
0062DZD0002193861*1000+000219386VXR+00000000000001-01-01-00.00.002018-07-04-11.19.11DRC0001-01-01-00.00.00                                                                                                                                                                                                              X
0018DZD0002193861*2000+000219386+000000000002018-07-04-11.19.110        +00001+000000+000000X
0176DZD000219386101000+000219386F+000001VXR+000000000Réintégration sociale prévoyance régularisée Réint.soc.prév.rég                                                                                                                                                                                                                                                                                                                                                                                                                                                                                                                                                                                                                                                                                                                                                                                           X
0018DZD0002193861*2000+000219386+000000000012018-07-04-11.19.110        +00001+000001+000000X
0016DZD000219386121000+000219386+000001VXR+000000000FRCATEGORY     FRPREINTEGSOC  X
0018DZD0002193861*2000+000219386+000000000212018-07-04-11.19.110        +00001+000001+000000X
0074DZD00021938619R000+000219386+000009VXR+000000000ZDCOM|DLA|FRCATEGORY                                                                                                                                                                                       ZD+000000000TSubstraction-FR-FR-FR                            TQualifierType                                    IAX
0074DZD00021938619R000+000219386+000010VXR+000000000ZDCOM|UCA|FRPREINTEGSOC                                                                                                                                                                                    ZD+000000000TSubstraction-FR-FR-FR                            TQualifier                                        IAX
0074DZD00021938619R000+000219386+000011VXR+000000000ZDVXR|DRC|A72                                                                                                                                                                                             LZD+000000000TSubstraction-FR-FR-FR                            TAggregate                                        IAX
0074DZD00021938619R000+000219386+000012VXR+000000000ZDVXR|DRC|G78                                                                                                                                                                                             CZD+000000000TSubstraction-FR-FR-FR                            TPayrollItem                                      IAX
0074DZD00021938619R000+000219386+000013VXR+000000000ZDVXR|DRC|Z78                                                                                                                                                                                             CZD+000000000TSubstraction-FR-FR-FR                            TPayrollItem                                      IAX
0018DZD0002193861*2000+000219386+0000000009R2018-07-04-11.19.110        +00005+000013+000000X
0035DZD0002193861AH000+000219386VXR+00000000081      P+000000100P+000000100+000 1  B0          N1             0   0001   00              0000    +0000  0                      X
0018DZD0002193861*2000+000219386+000000000AH2018-07-04-11.19.110        +00001+000000+000000X
0038DZD0002193861AO000+000219386VXR+000000000                                Q+1TM    000  X+000001                                                                                   1          X
0018DZD0002193861*2000+000219386+000000000AO2018-07-04-11.19.110        +00001+000000+000000X
0024DZD0002193861BA000+000219386+000001VXR+000000000DECL01  DÉCLENCHÉE PAR LE REGROUPEMENT GÉNÉRAL                         X
0024DZD0002193861BA000+000219386+000002VXR+000000000FONCTI01RÉINTÉGRATION SOCIALE DE LA PRÉVOYANCE COMPLÉMENTAIRE          X
0024DZD0002193861BA000+000219386+000003VXR+000000000UTIL01  DIMINUE L'ASSIETTE DU FORFAIT SOCIAL PRÉVOYANCE (8%)           X
0018DZD0002193861*2000+000219386+000000000BA2018-07-04-11.19.110        +00003+000003+000000X
0082DZD0002193861CP000+000219386+000001+000000+0000003VXR+0000000002999-12-312018-01-0181      +000+000+000        RZ78+00000000000        RG78+00000000000            +00000000000             +00000000000            +00000000000            +00000000000            +00000000000            +00000000000            +00000000000            +00000000000                                                         0001 X
0018DZD0002193861*2000+000219386+000000000CP2018-07-04-11.19.110        +00001+000001+000001X
0016AZD0000000001CQ001CQNUDOSSNUDOSS                        INTEGER  I000100018R0000
0016AZD0000000001CQ002CQNULIGNNULIGN                        INTEGER  I000070028R0000
0016AZD0000000001CQ003CQSOCDOSSOCDOS                        CHAR     X000030035R0000
0016AZD0000000001CQ004CQPGPDOSPGPDOS                        INTEGER  I000100038R0000
0016AZD0000000001CQ005CQCDASSICDASSI                        CHAR     X000030048R1000
0016AZD0000000001CQ006CQTEASSITEASSI                        CHAR     X000010051R1000
0016AZD0000000001CQ007CQSIASSISIASSI                        CHAR     X000010052R1000
0011DZD0002193861CQ000+000219386+000001VXR+000000000A72M-X
0018DZD0002193861*2000+000219386+000000000CQ2018-07-04-11.19.110        +00001+000001+000000X
0025DZD000219092000000+000219092VXR+000000000VXRDRCRS4            A                              0001-01-012999-12-31+000000000X
0062DZD0002190921*1000+000219092VXR+00000000000001-01-01-00.00.002018-07-04-11.19.11DRC0001-01-01-00.00.00                                                                                                                                                                                                              X
0018DZD0002190921*2000+000219092+000000000002018-07-04-11.19.110        +00001+000000+000000X
0176DZD000219092101000+000219092F+000001VXR+000000000Réintégration sociale régularisée            Réintég.soc.régul.                                                                                                                                                                                                                                                                                                                                                                                                                                                                                                                                                                                                                                                                                                                                                                                           X
0018DZD0002190921*2000+000219092+000000000012018-07-04-11.19.110        +00001+000001+000000X
0016DZD000219092121000+000219092+000001VXR+000000000FRCATEGORY     FRPREINTEGSOC  X
0018DZD0002190921*2000+000219092+000000000212018-07-04-11.19.110        +00001+000001+000000X
0074DZD00021909219R000+000219092+000076VXR+000000000ZDCOM|DLA|FRCATEGORY                                                                                                                                                                                       ZD+000000000TPayrollItemFreeFormula-FR-FR-FR                  TQualifierType                                    IAX
0074DZD00021909219R000+000219092+000077VXR+000000000ZDCOM|UCA|FRPREINTEGSOC                                                                                                                                                                                    ZD+000000000TPayrollItemFreeFormula-FR-FR-FR                  TQualifier                                        IAX
0074DZD00021909219R000+000219092+000078VXR+000000000ZDVXR|DRC|A09                                                                                                                                                                                             LZD+000000000TPayrollItemFreeFormula-FR-FR-FR                  TAggregate                                        IAX
0074DZD00021909219R000+000219092+000079VXR+000000000ZDVXR|DRC|A25                                                                                                                                                                                             LZD+000000000TPayrollItemFreeFormula-FR-FR-FR                  TAggregate                                        IAX
0074DZD00021909219R000+000219092+000080VXR+000000000ZDVXR|DRC|A26                                                                                                                                                                                             LZD+000000000TPayrollItemFreeFormula-FR-FR-FR                  TAggregate                                        IAX
0074DZD00021909219R000+000219092+000081VXR+000000000ZDVXR|DRC|A27                                                                                                                                                                                             LZD+000000000TPayrollItemFreeFormula-FR-FR-FR                  TAggregate                                        IAX
0074DZD00021909219R000+000219092+000082VXR+000000000ZDVXR|DRC|RS3                                                                                                                                                                                             CZD+000000000TPayrollItemFreeFormula-FR-FR-FR                  TPayrollItem                                      IAX
0018DZD0002190921*2000+000219092+0000000009R2018-07-04-11.19.110        +00007+000082+000000X
0035DZD0002190921AH000+000219092VXR+00000000079      P+000000100P+000000100+000 1  B0          N1             0   0001   00              0000    +0000  0                      X
0018DZD0002190921*2000+000219092+000000000AH2018-07-04-11.19.110        +00001+000000+000000X
0038DZD0002190921AO000+000219092VXR+000000000                                Q+1TM    000  X+000001                                                                                   1          X
0018DZD0002190921*2000+000219092+000000000AO2018-07-04-11.19.110        +00001+000000+000000X
0024DZD0002190921BA000+000219092+000001VXR+000000000DECLEN01DÉCLENCHÉE PAR LE REGROUPEMENT GÉNÉRAL                         X
0024DZD0002190921BA000+000219092+000002VXR+000000000FONCTI01RÉINTÉGRATION SOCIALE PRÉVOYANCE COMPLÉMENTAIRE + RETRAITE     X
0024DZD0002190921BA000+000219092+000005VXR+000000000FONCTI02SUPPLÉMENTAIRE                                                 X
0024DZD0002190921BA000+000219092+000003VXR+000000000UTIL01  AUGMENTE LES ASSIETTES URSSAF, CHÔMAGE, IRC                    X
0018DZD0002190921*2000+000219092+000000000BA2018-07-04-11.19.110        +00004+000005+000000X
0082DZD0002190921CP000+000219092+000001+000000+0000003VXR+0000000002999-12-312018-01-0179      +000+000+000            +00000000000            +00000000000            +00000000000             +00000000000            +00000000000            +00000000000            +00000000000            +00000000000            +00000000000            +00000000000RRS3                                                     0001 X
0018DZD0002190921*2000+000219092+000000000CP2018-07-04-11.19.110        +00001+000001+000001X
0011DZD0002190921CQ000+000219092+000001VXR+000000000A09M+X
0011DZD0002190921CQ000+000219092+000002VXR+000000000A25M+X
0011DZD0002190921CQ000+000219092+000003VXR+000000000A26M+X
0011DZD0002190921CQ000+000219092+000004VXR+000000000A27M+X
0018DZD0002190921*2000+000219092+000000000CQ2018-07-04-11.19.110        +00004+000004+000000X
0025DZD000220524000000+000220524VXR+000000000VXRDRCW10            A                              0001-01-012999-12-31+000000000X
0062DZD0002205241*1000+000220524VXR+00000000000001-01-01-00.00.002018-07-04-11.19.11DRC0001-01-01-00.00.00                                                                                                                                                                                                              X
0018DZD0002205241*2000+000220524+000000000002018-07-04-11.19.110        +00001+000000+000000X
0176DZD000220524101000+000220524F+000001VXR+000000000Récup.soumis SS.mensuel hors réintég.sociale Réc.soumis SS mens                                                                                                                                                                                                                                                                                                                                                                                                                                                                                                                                                                                                                                                                                                                                                                                           X
0018DZD0002205241*2000+000220524+000000000012018-07-04-11.19.110        +00001+000001+000000X
0016DZD000220524121000+000220524+000001VXR+000000000FRCATEGORY     FRPREINTEGSOC  X
0018DZD0002205241*2000+000220524+000000000212018-07-04-11.19.110        +00001+000001+000000X
0074DZD00022052419R000+000220524+000043VXR+000000000ZDCOM|DLA|FRCATEGORY                                                                                                                                                                                       ZD+000000000TReferenceAmount-FR-FR-FR                         TQualifierType                                    IAX
0074DZD00022052419R000+000220524+000044VXR+000000000ZDCOM|UCA|FRPREINTEGSOC                                                                                                                                                                                    ZD+000000000TReferenceAmount-FR-FR-FR                         TQualifier                                        IAX
0074DZD00022052419R000+000220524+000045VXR+000000000ZDVXR|DRC|A10                                                                                                                                                                                             CZD+000000000TReferenceAmount-FR-FR-FR                         TAggregate                                        IAX
0018DZD0002205241*2000+000220524+0000000009R2018-07-04-11.19.110        +00003+000045+000000X
0035DZD0002205241AH000+000220524VXR+00000000020      P+000000100P+000000100+000 1  B0          N1             0   0001   00              0000    +0000  0                      X
0018DZD0002205241*2000+000220524+000000000AH2018-07-04-11.19.110        +00001+000000+000000X
0038DZD0002205241AO000+000220524VXR+000000000                                Q+1TM    000  X+000001                                                                                   1          X
0018DZD0002205241*2000+000220524+000000000AO2018-07-04-11.19.110        +00001+000000+000000X
0024DZD0002205241BA000+000220524+000001VXR+000000000DECLEN01DÉCLENCHÉE PAR LE REGROUPEMENT GÉNÉRAL                         X
0024DZD0002205241BA000+000220524+000002VXR+000000000FONCTI01ASSIETTE DE COTISATION MENSUELLE HORS RÉINTÉGRATION SOCIALE    X
0024DZD0002205241BA000+000220524+000003VXR+000000000UTIL01  UTILISÉE DANS LE CALCUL DU SEUIL DE RÉINTÉGRATION SOCIALE      X
0024DZD0002205241BA000+000220524+000004VXR+000000000UTIL02  DE LA PRÉVOYANCE                                               X
0018DZD0002205241*2000+000220524+000000000BA2018-07-04-11.19.110        +00004+000004+000000X
0082DZD0002205241CP000+000220524+000001+000000+0000003VXR+0000000002999-12-312018-01-0120      +000+000+000        HA10+00000000000            +00000000000            +00000000000             +00000000000            +00000000000            +00000000000            +00000000000            +00000000000            +00000000000            +00000000000                                                         0001 X
0018DZD0002205241*2000+000220524+000000000CP2018-07-04-11.19.110        +00001+000001+000001X
0025DZD000220305000000+000220305VXR+000000000VXRDRCW79            A                              0001-01-012999-12-31+000000000X
0062DZD0002203051*1000+000220305VXR+00000000000001-01-01-00.00.002018-07-04-11.19.11DRC0001-01-01-00.00.00                                                                                                                                                                                                              X
0018DZD0002203051*2000+000220305+000000000002018-07-04-11.19.110        +00001+000000+000000X
0176DZD000220305101000+000220305F+000001VXR+000000000Récup.cotis.patro.prévoyance compl.oblig.mensRéc.cot.prév.mens.                                                                                                                                                                                                                                                                                                                                                                                                                                                                                                                                                                                                                                                                                                                                                                                           X
0018DZD0002203051*2000+000220305+000000000012018-07-04-11.19.110        +00001+000001+000000X
0016DZD000220305121000+000220305+000001VXR+000000000FRCATEGORY     FRPREINTEGSOC  X
0018DZD0002203051*2000+000220305+000000000212018-07-04-11.19.110        +00001+000001+000000X
0074DZD00022030519R000+000220305+000043VXR+000000000ZDCOM|DLA|FRCATEGORY                                                                                                                                                                                       ZD+000000000TReferenceAmount-FR-FR-FR                         TQualifierType                                    IAX
0074DZD00022030519R000+000220305+000044VXR+000000000ZDCOM|UCA|FRPREINTEGSOC                                                                                                                                                                                    ZD+000000000TReferenceAmount-FR-FR-FR                         TQualifier                                        IAX
0074DZD00022030519R000+000220305+000045VXR+000000000ZDVXR|DRC|A75                                                                                                                                                                                             CZD+000000000TReferenceAmount-FR-FR-FR                         TAggregate                                        IAX
0018DZD0002203051*2000+000220305+0000000009R2018-07-04-11.19.110        +00003+000045+000000X
0035DZD0002203051AH000+000220305VXR+00000000020      P+000000100P+000000100+000 1  B0          N1             0   0001   00              0000    +0000  0                      X
0018DZD0002203051*2000+000220305+000000000AH2018-07-04-11.19.110        +00001+000000+000000X
0038DZD0002203051AO000+000220305VXR+000000000                                Q+1TM    000  X+000001                                                                                   1          X
0018DZD0002203051*2000+000220305+000000000AO2018-07-04-11.19.110        +00001+000000+000000X
0024DZD0002203051BA000+000220305+000001VXR+000000000DECLEN01DÉCLENCHÉE PAR LE REGROUPEMENT GÉNÉRAL                         X
0024DZD0002203051BA000+000220305+000002VXR+000000000FONCTI01COTISATIONS PATRONALES PRÉVOYANCE COMPLÉMENTAIRE               X
0024DZD0002203051BA000+000220305+000003VXR+000000000UTIL01  UTILISÉE DANS LE CALCUL DE LA RÉINTÉGRATION SOCIALE PRÉVOYANCE X
0018DZD0002203051*2000+000220305+000000000BA2018-07-04-11.19.110        +00003+000003+000000X
0082DZD0002203051CP000+000220305+000001+000000+0000003VXR+0000000002999-12-312018-01-0120      +000+000+000        HA75+00000000000            +00000000000            +00000000000             +00000000000            +00000000000            +00000000000            +00000000000            +00000000000            +00000000000            +00000000000                                                         0001 X
0018DZD0002203051*2000+000220305+000000000CP2018-07-04-11.19.110        +00001+000001+000001X
0025DZD000220306000000+000220306VXR+000000000VXRDRCW84            A                              0001-01-012999-12-31+000000000X
0062DZD0002203061*1000+000220306VXR+00000000000001-01-01-00.00.002018-07-04-11.19.11DRC0001-01-01-00.00.00                                                                                                                                                                                                              X
0018DZD0002203061*2000+000220306+000000000002018-07-04-11.19.110        +00001+000000+000000X
0176DZD000220306101000+000220306F+000001VXR+000000000Récupération plafond sécurité sociale mensuelRécup.plaf.SS mens                                                                                                                                                                                                                                                                                                                                                                                                                                                                                                                                                                                                                                                                                                                                                                                           X
0018DZD0002203061*2000+000220306+000000000012018-07-04-11.19.110        +00001+000001+000000X
0016DZD000220306121000+000220306+000001VXR+000000000FRCATEGORY     FRPREINTEGSOC  X
0018DZD0002203061*2000+000220306+000000000212018-07-04-11.19.110        +00001+000001+000000X
0074DZD00022030619R000+000220306+000043VXR+000000000ZDCOM|DLA|FRCATEGORY                                                                                                                                                                                       ZD+000000000TReferenceAmount-FR-FR-FR                         TQualifierType                                    IAX
0074DZD00022030619R000+000220306+000044VXR+000000000ZDCOM|UCA|FRPREINTEGSOC                                                                                                                                                                                    ZD+000000000TReferenceAmount-FR-FR-FR                         TQualifier                                        IAX
0074DZD00022030619R000+000220306+000045VXR+000000000ZDVXR|DRC|A84                                                                                                                                                                                             CZD+000000000TReferenceAmount-FR-FR-FR                         TAggregate                                        IAX
0018DZD0002203061*2000+000220306+0000000009R2018-07-04-11.19.110        +00003+000045+000000X
0035DZD0002203061AH000+000220306VXR+00000000020      P+000000100P+000000100+000 1  B0          N1             0   0001   00              0000    +0000  0                      X
0018DZD0002203061*2000+000220306+000000000AH2018-07-04-11.19.110        +00001+000000+000000X
0038DZD0002203061AO000+000220306VXR+000000000                                Q+1TM    000  X+000001                                                                                   1          X
0018DZD0002203061*2000+000220306+000000000AO2018-07-04-11.19.110        +00001+000000+000000X
0024DZD0002203061BA000+000220306+000001VXR+000000000DECLEN01DÉCLENCHÉE PAR LE REGROUPEMENT GÉNÉRAL                         X
0024DZD0002203061BA000+000220306+000002VXR+000000000FONCTI01PLAFOND DE SÉCURITÉ SOCIALE                                    X
0024DZD0002203061BA000+000220306+000003VXR+000000000UTIL01  UTILISÉE DANS LE CALCUL DU SEUIL DE RÉINTÉGRATION SOCIALE      X
0024DZD0002203061BA000+000220306+000004VXR+000000000UTIL02  DE LA PRÉVOYANCE                                               X
0018DZD0002203061*2000+000220306+000000000BA2018-07-04-11.19.110        +00004+000004+000000X
0082DZD0002203061CP000+000220306+000001+000000+0000003VXR+0000000002999-12-312018-01-0120      +000+000+000        HA84+00000000000            +00000000000            +00000000000             +00000000000            +00000000000            +00000000000            +00000000000            +00000000000            +00000000000            +00000000000                                                         0001 X
0018DZD0002203061*2000+000220306+000000000CP2018-07-04-11.19.110        +00001+000001+000001X
0025DZD000219846000000+000219846VXR+000000000VXRDRCZ77            A                              0001-01-012999-12-31+000000000X
0062DZD0002198461*1000+000219846VXR+00000000000001-01-01-00.00.002018-07-04-11.19.11DRC0001-01-01-00.00.00                                                                                                                                                                                                              X
0018DZD0002198461*2000+000219846+000000000002018-07-04-11.19.110        +00001+000000+000000X
0176DZD000219846101000+000219846F+000001VXR+000000000Soumis SS annualisé hors réintég.sociale     Soumis SS annual.                                                                                                                                                                                                                                                                                                                                                                                                                                                                                                                                                                                                                                                                                                                                                                                            X
0018DZD0002198461*2000+000219846+000000000012018-07-04-11.19.110        +00001+000001+000000X
0016DZD000219846121000+000219846+000001VXR+000000000FRCATEGORY     FRPREINTEGSOC  X
0018DZD0002198461*2000+000219846+000000000212018-07-04-11.19.110        +00001+000001+000000X
0074DZD00021984619R000+000219846+000013VXR+000000000ZDCOM|DLA|FRCATEGORY                                                                                                                                                                                       ZD+000000000TAddition-FR-FR-FR                                TQualifierType                                    IAX
0074DZD00021984619R000+000219846+000014VXR+000000000ZDCOM|UCA|FRPREINTEGSOC                                                                                                                                                                                    ZD+000000000TAddition-FR-FR-FR                                TQualifier                                        IAX
0074DZD00021984619R000+000219846+000015VXR+000000000ZDVXR|DRC|G77                                                                                                                                                                                             CZD+000000000TAddition-FR-FR-FR                                TPayrollItem                                      IAX
0074DZD00021984619R000+000219846+000016VXR+000000000ZDVXR|DRC|W10                                                                                                                                                                                             CZD+000000000TAddition-FR-FR-FR                                TPayrollItem                                      IAX
0074DZD00021984619R000+000219846+000017VXR+000000000ZDVXR|DSA|077                                                                                                                                                                                             LZD+000000000TAddition-FR-FR-FR                                TCarryOverAmount                                  IAX
0018DZD0002198461*2000+000219846+0000000009R2018-07-04-11.19.110        +00005+000017+000000X
0035DZD0002198461AH000+000219846VXR+00000000080      P+000000100P+000000100+000 1  B0          N1             0   0001   00              0000    +0000  0                      X
0018DZD0002198461*2000+000219846+000000000AH2018-07-04-11.19.110        +00001+000000+000000X
0016AZD0000000001AK001AKNUDOSSNUDOSS                        INTEGER  I000100018R0000
