0016AZD0000000001*100111NUDOSSNUDOSS                        INTEGER  I000100018R0000
0016AZD0000000001*100211CDSOC CDSOC                         CHAR     X000030028R0000
0016AZD0000000001*100311PGPDOSPGPDOS                        INTEGER  I000100031R0000
0016AZD0000000001*100411TEVEROTEVERO                        CHAR     X000010041R0000
0016AZD0000000001*100511TIVERRTIVERR                        TIMESTAMPX000190042R0000
0016AZD0000000001*100611TIMJDOTIMJDO                        TIMESTAMPH000190061R0000
0016AZD0000000001*100711VACDSTVACDST                        CHAR     X000030080R0000
0016AZD0000000001*100811TITRANTITRAN                        TIMESTAMPH000190083R0000
0016AZD0000000001*100911USERIDUSERID                        CHAR     X000250102R0000
0016AZD0000000001*101011ROLMODROLMOD                        CHAR     X000200127R0000
0016AZD0000000001*101111ROLVALROLVAL                        CHAR     X000640147R0000
0016AZD0000000001*101211ATTRI1ATTRI1                        CHAR     X000080211R0000
0016AZD0000000001*101311ATTRI2ATTRI2                        CHAR     X000080219R0000
0016AZD0000000001*101411ATTRI3ATTRI3                        CHAR     X000080227R0000
0016AZD0000000001*101511ATTRI4ATTRI4                        CHAR     X000200235R0000
0016AZD0000000001*101611ATTRI5ATTRI5                        CHAR     X000200255R0000
0016AZD0000000001*101711ROWNERROWNER                        CHAR     X000250275R0000
0016AZD0000000001*200112NUDOSSNUDOSS                        INTEGER  I000100018R0000
0016AZD0000000001*200212PGPDOSPGPDOS                        INTEGER  I000100028R0000
0016AZD0000000001*200312CDINFOCDINFO                        CHAR     X000020038R0000
0016AZD0000000001*200412TIMJIFTIMJIF                        TIMESTAMPH000190040R0000
0016AZD0000000001*200512TEVEROTEVERO                        CHAR     X000010059R0000
0016AZD0000000001*200612NOMBRENOMBRE                        INTEGER  I000060060R0000
0016AZD0000000001*200712NULMAXNULMAX                        INTEGER  I000070066R0000
0016AZD0000000001*200812NUCMAXNUCMAX                        INTEGER  I000070073R0000
0016AZD0000000001*700107CDSTDOCDSTDO                        CHAR     X000020018R0000
0016AZD0000000001*700207VACDSTVACDST                        CHAR     X000030020R0000
0016AZD0000000001*700307TIANNUTIANNU                        TIMESTAMPH000190023R0000
0016AZD0000000001*700407TIMODITIMODI                        TIMESTAMPH000190042R0000
0016AZD00000000000000100NUDOSSNUDOSS                        INTEGER  I000100018R0000
0016AZD00000000000000200SOCDOSSOCDOS                        CHAR     X000030028R0000
0016AZD00000000000000300PGPDOSPGPDOS                        INTEGER  I000100031R0000
0016AZD00000000000000400CDREGLCDREGL                        CHAR     X000030041R1100
0016AZD00000000000000500CDSTCOCDSTCO                        CHAR     X000030044R1010
0016AZD00000000000000600CDCODECDCODE                        CHAR     X000150047R1000
0016AZD00000000000000700TEREGXTEREGX                        CHAR     X000010062R0000
0016AZD00000000000000800CDRG01CDRG01                        CHAR     X000030063R0000
0016AZD00000000000000900CDRG02CDRG02                        CHAR     X000030066R0000
0016AZD00000000000001000CDRG03CDRG03                        CHAR     X000030069R0000
0016AZD00000000000001100CDRG04CDRG04                        CHAR     X000030072R0000
0016AZD00000000000001200CDRG05CDRG05                        CHAR     X000030075R0000
0016AZD00000000000001300CDRG06CDRG06                        CHAR     X000030078R0000
0016AZD00000000000001400CDRG07CDRG07                        CHAR     X000030081R0000
0016AZD00000000000001500CDRG08CDRG08                        CHAR     X000030084R0000
0016AZD00000000000001600CDRG09CDRG09                        CHAR     X000030087R0000
0016AZD00000000000001700CDRG10CDRG10                        CHAR     X000030090R0000
0016AZD00000000000001800DTDVA DTDVA                         DATE     Q000100093R0000
0016AZD00000000000001900DTFVA DTFVA                         DATE     Q000100103R0000
0016AZD00000000000002000IDGPRGIDGPRG                        INTEGER  I000100113R0Q00
0025DZD000192738000000+000192738FRC+000500000FRCDREM9751          A                              0001-01-012999-12-31+000500000X
0067DZD0001927381*1000+000192738FRC+00050000000001-01-01-00.00.002013-09-16-15.48.43DRE0001-01-01-00.00.00                                                                                                                                                                                                      X
0017DZD0001927381*2000+000192738+000500000002013-09-16-15.48.430+00001+000000+000000X
0016AZD00000000010100101NUDOSSNUDOSS                        INTEGER  I000100018R0000
0016AZD00000000010100201CDLANGCDLANG                        CHAR     X000010028R0000
0016AZD00000000010100301NULIGNNULIGN                        INTEGER  I000070029R0000
0016AZD00000000010100401SOCDOSSOCDOS                        CHAR     X000030036R0000
0016AZD00000000010100501PGPDOSPGPDOS                        INTEGER  I000100039R0000
0016AZD00000000010100601LIBLONLIBLON                        CHAR     Y000450049R0000
0016AZD00000000010100701LIBABRLIBABR                        CHAR     Y000180094R0000
0016AZD00000000010100801LBCMP1LBCMP1                        CHAR     Y002540112R0000
0016AZD00000000010100901LBCMP2LBCMP2                        CHAR     Y002540366R0000
0016AZD00000000010101001LBCMP3LBCMP3                        CHAR     Y002540620R0000
0016AZD00000000010101101BLOB01BLOB01                        CHAR     X000010874R0000
0176DZD000192738101000+000192738F+000001FRC+000500000FA MECS D'ABBEVILLE                          FA MECS DABBEVILLE                                                                                                                                                                                                                                                                                                                                                                                                                                                                                                                                                                                                                                                                                                                                                                                          0X
0017DZD0001927381*2000+000192738+000500000012013-09-16-15.48.430+00001+000001+000000X
0016AZD00000000010F0010FNUDOSSNUDOSS                        INTEGER  I000100018R0000
0016AZD00000000010F0020FSOCDOSSOCDOS                        CHAR     X000030028R0000
0016AZD00000000010F0030FPGPDOSPGPDOS                        INTEGER  I000100031R0000
0016AZD00000000010F0040FCDPAYSCDPAYS                        CHAR     X000030041R0000
0016AZD00000000010F0050FCDPOSTCDPOST                        CHAR     X000150044R0000
0016AZD00000000010F0060FZONADAZONADA                        CHAR     Y000400059R0000
0016AZD00000000010F0070FZONADBZONADB                        CHAR     Y000400099R0000
0016AZD00000000010F0080FZONADCZONADC                        CHAR     Y000400139R0000
0016AZD00000000010F0090FZONADDZONADD                        CHAR     Y000400179R0000
0016AZD00000000010F0100FZONADEZONADE                        CHAR     Y000400219R0000
0016AZD00000000010F0110FZONADFZONADF                        CHAR     Y000080259R0000
0016AZD00000000010F0120FZONADGZONADG                        CHAR     Y000080267R0000
0016AZD00000000010F0130FZONADHZONADH                        CHAR     Y000080275R0000
0016AZD00000000010F0140FZONADIZONADI                        CHAR     Y000080283R0000
0016AZD00000000010F0150FZONADJZONADJ                        CHAR     Y000080291R0000
0060DZD00019273810F000+000192738FRC+000500000FRA80100                                                  3     RUE LEDAY                                                                 80100 ABBEVILLE                                                                                                         X
0017DZD0001927381*2000+000192738+0005000000F2013-09-16-15.48.430+00001+000000+000000X
0016AZD00000000013900139NUDOSSNUDOSS                        INTEGER  I000100018R0000
0016AZD00000000013900239SOCDOSSOCDOS                        CHAR     X000030028R0000
0016AZD00000000013900339PGPDOSPGPDOS                        INTEGER  I000100031R0000
0016AZD00000000013900439IDCY00IDCY00                        CHAR     X000030041R0000
0009DZD000192738139000+000192738FRC+000500000FAUX
0017DZD0001927381*2000+000192738+000500000392013-09-16-15.48.430+00001+000000+000000X
0016AZD0000000001AG001AGNUDOSSNUDOSS                        INTEGER  I000100018R0000
0016AZD0000000001AG002AGSOCDOSSOCDOS                        CHAR     X000030028R0000
0016AZD0000000001AG003AGPGPDOSPGPDOS                        INTEGER  I000100031R0000
0016AZD0000000001AG004AGCDSIRECDSIRE                        CHAR     X000090041R0000
0016AZD0000000001AG005AGCDNICSCDNICS                        CHAR     X000050050R0000
0016AZD0000000001AG006AGCDAPESCDAPES                        CHAR     X000040055R0000
0016AZD0000000001AG007AGCDAPE2CDAPE2                        CHAR     X000050059R0000
0016AZD0000000001AG008AGCDURSSCDURSS                        CHAR     X000080064R0000
0016AZD0000000001AG009AGTEETEMTEETEM                        CHAR     X000010072R0000
0016AZD0000000001AG010AGTXDTVATXDTVA                        DECIMAL  N200060073R0000
0016AZD0000000001AG011AGCDETDECDETDE                        CHAR     X000080079R0000
0016AZD0000000001AG012AGTETASATETASA                        CHAR     X000010087R0000
0016AZD0000000001AG013AGCDPROCCDPROC                        CHAR     X000010088R0000
0016AZD0000000001AG014AGTESOCSTESOCS                        CHAR     X000010089R0000
0016AZD0000000001AG015AGLISIDALISIDA                        CHAR     Y000300090R0000
0016AZD0000000001AG016AGLIPRSILIPRSI                        CHAR     Y000200120R0000
0016AZD0000000001AG017AGLIRESILIRESI                        CHAR     Y000400140R0000
0016AZD0000000001AG018AGNUINCONUINCO                        CHAR     X000110180R0000
0016AZD0000000001AG019AGEFEX1 EFEX1                         DECIMAL  S200100191R0000
0016AZD0000000001AG020AGEFEX2 EFEX2                         DECIMAL  S200100201R0000
0016AZD0000000001AG021AGEFEX3 EFEX3                         DECIMAL  S200100211R0000
0016AZD0000000001AG022AGEFEX4 EFEX4                         DECIMAL  S200100221R0000
0016AZD0000000001AG023AGEFEX5 EFEX5                         DECIMAL  S200100231R0000
0016AZD0000000001AG024AGEFEX6 EFEX6                         DECIMAL  S200100241R0000
0016AZD0000000001AG025AGEFEX7 EFEX7                         DECIMAL  S200100251R0000
0016AZD0000000001AG026AGEFEX8 EFEX8                         DECIMAL  S200100261R0000
0016AZD0000000001AG027AGEFEX9 EFEX9                         DECIMAL  S200100271R0000
0016AZD0000000001AG028AGEFEX10EFEX10                        DECIMAL  S200100281R0000
0016AZD0000000001AG029AGEFEX11EFEX11                        DECIMAL  S200100291R0000
0016AZD0000000001AG030AGEFEX12EFEX12                        DECIMAL  S200100301R0000
0016AZD0000000001AG031AGCLINDICLINDI                        CHAR     X000020311R0000
0016AZD0000000001AG032AGTETYDATETYDA                        CHAR     X000010313R0000
0016AZD0000000001AG033AGCDINSECDINSE                        CHAR     X000050314R0000
0016AZD0000000001AG034AGNUURSSNUURSS                        CHAR     X000200319R0000
0016AZD0000000001AG035AGCDASSECDASSE                        CHAR     X000030339R0000
0016AZD0000000001AG036AGNUASSENUASSE                        CHAR     X000090342R0000
0016AZD0000000001AG037AGEFFECTEFFECT                        CHAR     X000010351R0000
0016AZD0000000001AG038AGETABPGETABPG                        CHAR     X000080352R0000
0016AZD0000000001AG039AGETAVLUETAVLU                        CHAR     X000080360R0000
0016AZD0000000001AG040AGAGRASSAGRASS                        CHAR     X000030368R0000
0016AZD0000000001AG041AGFLTA00FLTA00                        CHAR     X000010371R0000
0016AZD0000000001AG042AGFLTA01FLTA01                        CHAR     X000010372R0000
0016AZD0000000001AG043AGFLTA02FLTA02                        CHAR     X000010373R0000
0016AZD0000000001AG044AGDATDEBDATDEB                        DATE     Q000100374R0000
0016AZD0000000001AG045AGDATFINDATFIN                        DATE     Q000100384R0000
0016AZD0000000001AG046AGCODMMOCODMMO                        CHAR     X000080394R0000
0016AZD0000000001AG047AGTYPSUBTYPSUB                        CHAR     X000010402R0000
0081DZD0001927381AG000+000192738FRC+00050000077568879901472879 8790AU317     +00000          X                                                                                                     +000000000+000000000+000000000+000000000+000000000+000000000+000000000+000000000+000000000+000000000+000000000+000000000        11111111111111111111026                             0000001-01-012999-12-31        0X
0017DZD0001927381*2000+000192738+000500000AG2013-09-16-15.48.430+00001+000000+000000X
0016AZD0000000001BK001BKNUDOSSNUDOSS                        INTEGER  I000100018R0000
0016AZD0000000001BK002BKSOCDOSSOCDOS                        CHAR     X000030028R0000
0016AZD0000000001BK003BKPGPDOSPGPDOS                        INTEGER  I000100031R0000
0016AZD0000000001BK004BKNBHEURNBHEUR                        DECIMAL  N200060041R0000
0016AZD0000000001BK005BKNBHEBDNBHEBD                        DECIMAL  N200050047R0000
0016AZD0000000001BK006BKLIACETLIACET                        CHAR     Y000400052R0000
0016AZD0000000001BK007BKTEETOBTEETOB                        CHAR     X000010092R0000
0016AZD0000000001BK008BKCDSECTCDSECT                        CHAR     X000020093R0000
0016AZD0000000001BK009BKCDDEROCDDERO                        CHAR     X000020095R0000
0020DZD0001927381BK000+000192738FRC+000500000+15167+3500                                             X
0017DZD0001927381*2000+000192738+000500000BK2013-09-16-15.48.430+00001+000000+000000X
0016AZD0000000001BN001BNNUDOSSNUDOSS                        INTEGER  I000100018R0000
0016AZD0000000001BN002BNNULIGNNULIGN                        INTEGER  I000070028R0000
0016AZD0000000001BN003BNSOCDOSSOCDOS                        CHAR     X000030035R0000
0016AZD0000000001BN004BNPGPDOSPGPDOS                        INTEGER  I000100038R0000
0016AZD0000000001BN005BNNUORRINUORRI                        DECIMAL  9000020048R1000
0016AZD0000000001BN006BNCDRIATCDRIAT                        CHAR     X000050050R0000
0016AZD0000000001BN007BNCDSECTCDSECT                        CHAR     X000020055R0000
0016AZD0000000001BN008BNNBHEETNBHEET                        DECIMAL  N100040057R0000
0016AZD0000000001BN009BNTXACTRTXACTR                        DECIMAL  N200060061R0000
0016AZD0000000001BN010BNCDBURECDBURE                        CHAR     X000010067R0000
0014DZD0001927381BN000+000192738+000001FRC+000500000+1853AE01+350+00300 X
0014DZD0001927381BN000+000192738+000002FRC+000500000+2853AA02+350+00290 X
0017DZD0001927381*2000+000192738+000500000BN2013-09-16-15.48.430+00002+000002+000000X
0016AZD0000000001FT001FTNUDOSSNUDOSS                        INTEGER  I000100018R0000
0016AZD0000000001FT002FTNULIGNNULIGN                        INTEGER  I000070028R0000
0016AZD0000000001FT003FTNULIGSNULIGS                        INTEGER  I000070035R0000
0016AZD0000000001FT004FTNULIGPNULIGP                        INTEGER  I000070042R0000
0016AZD0000000001FT005FTTEACTITEACTI                        CHAR     X000010049R0000
0016AZD0000000001FT006FTSOCDOSSOCDOS                        CHAR     X000030050R0000
0016AZD0000000001FT007FTPGPDOSPGPDOS                        INTEGER  I000100053R0000
0016AZD0000000001FT008FTREGIMEREGIME                        CHAR     X000100063R1000
0016AZD0000000001FT009FTTYPREGTYPREG                        CHAR     X000010073R1000
0016AZD0000000001FT010FTDEBCAIDEBCAI                        DATE     Q000100074R1000
0016AZD0000000001FT011FTFLALIMFLALIM                        CHAR     X000010084R0000
0016AZD0000000001FT012FTFINCAIFINCAI                        DATE     Q000100085R0000
0016AZD0000000001FT013FTREFCAIREFCAI                        DATE     Q000100095R0000
0016AZD0000000001FT014FTCOMCAICOMCAI                        CHAR     X000800105R0000
0038DZD0001927381FT000+000192738+000001+000000+0000003FRC+000500000ACT        2013-09-0102999-12-310001-01-01004                                                                             X
0038DZD0001927381FT000+000192738+000002+000000+0000003FRC+000500000AO7        2013-09-0102999-12-310001-01-01004                                                                             X
0038DZD0001927381FT000+000192738+000003+000000+0000003FRC+000500000AO9        2013-09-0102999-12-310001-01-01004                                                                             X
0038DZD0001927381FT000+000192738+000004+000000+0000003FRC+000500000AT7        2013-09-0102999-12-310001-01-01038                                                                             X
0038DZD0001927381FT000+000192738+000005+000000+0000003FRC+000500000AU7        2013-09-0102999-12-310001-01-01038                                                                             X
0038DZD0001927381FT000+000192738+000006+000000+0000003FRC+000500000AV7        2013-09-0102999-12-310001-01-01038                                                                             X
0038DZD0001927381FT000+000192738+000007+000000+0000003FRC+000500000CK6        2013-09-0102999-12-310001-01-01005                                                                             X
0038DZD0001927381FT000+000192738+000017+000000+0000003FRC+000500000M71        2013-09-0102999-12-310001-01-01057                                                                             X
0038DZD0001927381FT000+000192738+000008+000000+0000003FRC+000500000MAL        2013-09-0102999-12-310001-01-01007                                                                             X
0038DZD0001927381FT000+000192738+000009+000000+0000003FRC+000500000MCK        2013-09-0102999-12-310001-01-01007                                                                             X
0038DZD0001927381FT000+000192738+000010+000000+0000003FRC+000500000MEK        2013-09-0102999-12-310001-01-01007                                                                             X
0038DZD0001927381FT000+000192738+000011+000000+0000003FRC+000500000MGK        2013-09-0102999-12-310001-01-01007                                                                             X
0038DZD0001927381FT000+000192738+000012+000000+0000003FRC+000500000PA48       2013-09-0102999-12-310001-01-01025                                                                             X
0038DZD0001927381FT000+000192738+000013+000000+0000003FRC+000500000PO4        2013-09-0102999-12-310001-01-01008                                                                             X
0038DZD0001927381FT000+000192738+000014+000000+0000003FRC+000500000PO7        2013-09-0102999-12-310001-01-01008                                                                             X
0038DZD0001927381FT000+000192738+000015+000000+0000003FRC+000500000RH4        2013-09-0102999-12-310001-01-01036                                                                             X
0038DZD0001927381FT000+000192738+000016+000000+0000003FRC+000500000RH5        2013-09-0102999-12-310001-01-01037                                                                             X
0038DZD0001927381FT000+000192738+000018+000000+0000003FRC+000500000S01        2013-09-0102999-12-310001-01-01054                                                                             X
0038DZD0001927381FT000+000192738+000019+000000+0000003FRC+000500000S02        2013-09-0102999-12-310001-01-01054                                                                             X
0017DZD0001927381*2000+000192738+000500000FT2013-09-16-15.48.430+00019+000019+000019X
0016AZD0000000001W3001W3NUDOSSNUDOSS                        INTEGER  I000100018R0000
0016AZD0000000001W3002W3NULIGNNULIGN                        INTEGER  I000070028R0000
0016AZD0000000001W3003W3SOCDOSSOCDOS                        CHAR     X000030035R0000
0016AZD0000000001W3004W3PGPDOSPGPDOS                        INTEGER  I000100038R0000
0016AZD0000000001W3005W3NUMORDNUMORD                        DECIMAL  9000030048R1000
0016AZD0000000001W3006W3IDGLCYIDGLCY                        CHAR     X000150051R0000
0016AZD0000000001W3007W3CENFINCENFIN                        CHAR     X000090066R0000
0016DZD0001927381W3000+000192738+000001FRC+000500000+0186                      X
0017DZD0001927381*2000+000192738+000500000W32013-09-16-15.48.430+00001+000001+000000X
0025DZD000192739000000+000192739FRA+000500000FRAUE6QP             A                              0001-01-012999-12-31+000500000X
0067DZD0001927391*1000+000192739FRA+00050000000001-01-01-00.00.002013-09-16-15.48.43UE60001-01-01-00.00.00                                                                                                                                                                                                      X
0017DZD0001927391*2000+000192739+000500000002013-09-16-15.48.430+00001+000000+000000X
0176DZD000192739101000+000192739F+000001FRA+000500000CCN CROIX-ROUGE                              CCN CROIX-ROUGE                                                                                                                                                                                                                                                                                                                                                                                                                                                                                                                                                                                                                                                                                                                                                                                             0X
0017DZD0001927391*2000+000192739+000500000012013-09-16-15.48.430+00001+000001+000000X
0016AZD0000000001AW001AWNUDOSSNUDOSS                        INTEGER  I000100018R0000
0016AZD0000000001AW002AWSOCDOSSOCDOS                        CHAR     X000030028R0000
0016AZD0000000001AW003AWPGPDOSPGPDOS                        INTEGER  I000100031R0000
0016AZD0000000001AW004AWLIFIX1LIFIX1                        CHAR     Y000630041R0000
0016AZD0000000001AW005AWLIFIX2LIFIX2                        CHAR     Y000630104R0000
0016AZD0000000001AW006AWLIFIX3LIFIX3                        CHAR     Y000630167R0000
0047DZD0001927391AW000+000192739FRA+000500000CCN CROIX-ROUGE                                                                                                                                                                              X
0017DZD0001927391*2000+000192739+000500000AW2013-09-16-15.48.430+00001+000000+000000X
0025DZD000192757000000+000192757FDP+000500000FDPUBRRSEACCSU010    A                              0001-01-012999-12-31+000500000X
0067DZD0001927571*1000+000192757FDP+00050000000001-01-01-00.00.002013-09-16-15.48.43UBA0001-01-01-00.00.00                                                                                                                                                                                                      X
0017DZD0001927571*2000+000192757+000500000002013-09-16-15.48.430+00001+000000+000000X
0176DZD000192757101000+000192757F+000001FDP+000500000ASEACCSU010                                  ASEACCSU010                                                                                                                                                                                                                                                                                                                                                                                                                                                                                                                                                                                                                                                                                                                                                                                                 0X
0017DZD0001927571*2000+000192757+000500000012013-09-16-15.48.430+00001+000001+000000X
0025DZD000192758000000+000192758FDP+000500000FDPUBAFVCDCCCNFM1    A                              0001-01-012999-12-31+000500000X
0067DZD0001927581*1000+000192758FDP+00050000000001-01-01-00.00.002013-09-16-15.48.43UBA0001-01-01-00.00.00                                                                                                                                                                                                      X
0017DZD0001927581*2000+000192758+000500000002013-09-16-15.48.430+00001+000000+000000X
0176DZD000192758101000+000192758F+000001FDP+000500000OAAACCCNFM1                                  OAAACCCNFM1                                                                                                                                                                                                                                                                                                                                                                                                                                                                                                                                                                                                                                                                                                                                                                                                 0X
0017DZD0001927581*2000+000192758+000500000012013-09-16-15.48.430+00001+000001+000000X
0025DZD000192759000000+000192759FDP+000500000FDPUBAASEACCSU021    A                              0001-01-012999-12-31+000500000X
0067DZD0001927591*1000+000192759FDP+00050000000001-01-01-00.00.002013-09-16-15.48.43UBA0001-01-01-00.00.00                                                                                                                                                                                                      X
0017DZD0001927591*2000+000192759+000500000002013-09-16-15.48.430+00001+000000+000000X
0176DZD000192759101000+000192759F+000001FDP+000500000ASEACCSU020                                  ASEACCSU020                                                                                                                                                                                                                                                                                                                                                                                                                                                                                                                                                                                                                                                                                                                                                                                                 0X
0017DZD0001927591*2000+000192759+000500000012013-09-16-15.48.430+00001+000001+000000X