0016AZD00000000000000100NUDOSSNUDOSS                        INTEGER  I000100018R0000
0016AZD00000000000000200SOCDOSSOCDOS                        CHAR     X000030028R0000
0016AZD00000000000000300PGPDOSPGPDOS                        INTEGER  I000100031R0000
0016AZD00000000000000400CDREGLCDREGL                        CHAR     X000030041R1100
0016AZD00000000000000500CDSTCOCDSTCO                        CHAR     X000030044R1010
0016AZD00000000000000600CDCODECDCODE                        CHAR     X000150047R1000
0016AZD00000000000000700TEREGXTEREGX                        CHAR     X000010062R0000
0016AZD00000000000000800CDRG01CDRG01                        CHAR     X000030063R0000
0016AZD00000000000000900CDRG02CDRG02                        CHAR     X000030066R0000
0016AZD00000000000001000CDRG03CDRG03                        CHAR     X000030069R0000
0016AZD00000000000001100CDRG04CDRG04                        CHAR     X000030072R0000
0016AZD00000000000001200CDRG05CDRG05                        CHAR     X000030075R0000
0016AZD00000000000001300CDRG06CDRG06                        CHAR     X000030078R0000
0016AZD00000000000001400CDRG07CDRG07                        CHAR     X000030081R0000
0016AZD00000000000001500CDRG08CDRG08                        CHAR     X000030084R0000
0016AZD00000000000001600CDRG09CDRG09                        CHAR     X000030087R0000
0016AZD00000000000001700CDRG10CDRG10                        CHAR     X000030090R0000
0016AZD00000000000001800DTDVADTDVA                          DATE     Q000100093R0000
0016AZD00000000000001900DTFVADTFVA                          DATE     Q000100103R0000
0016AZD00000000000002000IDGPRGIDGPRG                        INTEGER  I000100113R0Q00
0025DZD000257620000000+000257620FDP+000500000FDPDS9100            A                              0001-01-012999-12-31+000500000X
0016AZD00000000010100101NUDOSSNUDOSS                        INTEGER  I000100018R0000
0016AZD00000000010100201CDLANGCDLANG                        CHAR     X000010028R0000
0016AZD00000000010100301NULIGNNULIGN                        INTEGER  I000070029R0000
0016AZD00000000010100401SOCDOSSOCDOS                        CHAR     X000030036R0000
0016AZD00000000010100501PGPDOSPGPDOS                        INTEGER  I000100039R0000
0016AZD00000000010100601LIBLONLIBLON                        CHAR     Y000450049R0000
0016AZD00000000010100701LIBABRLIBABR                        CHAR     Y000180094R0000
0016AZD00000000010100801LBCMP1LBCMP1                        CHAR     Y002540112R0000
0016AZD00000000010100901LBCMP2LBCMP2                        CHAR     Y002540366R0000
0016AZD00000000010101001LBCMP3LBCMP3                        CHAR     Y002540620R0000
0016AZD00000000010101101BLOB01BLOB01                        CHAR     X000010874R0000
0176DZD000257620101000+000257620F+000001FDP+000500000SMIC mensuel 200h                            SMIC mensuel 200h                                                                                                                                                                                                                                                                                                                                                                                                                                                                                                                                                                                                                                                                                                                                                                                           0X
0017DZD0002576201*2000+000257620+000500000012018-06-29-17.28.060+00001+000001+000001X
0016AZD00000000012100121NUDOSSNUDOSS                        INTEGER  I000100018R0000
0016AZD00000000012100221NULIGNNULIGN                        INTEGER  I000070028R0000
0016AZD00000000012100321SOCDOSSOCDOS                        CHAR     X000030035R0000
0016AZD00000000012100421PGPDOSPGPDOS                        INTEGER  I000100038R0000
0016AZD00000000012100521QLRTYPQLRTYP                        CHAR     X000150048R1000
0016AZD00000000012100621QUALIFQUALIF                        CHAR     X000150063R0000
0016DZD000257620121000+000257620+000001FDP+000500000CATEGORY       ABAURSSAF      X
0017DZD0002576201*2000+000257620+000500000212018-06-29-17.28.060+00001+000001+000001X
0016AZD00000000019R0019RNUDOSSNUDOSS                        INTEGER  I000100018R0000
0016AZD00000000019R0029RNULIGNNULIGN                        INTEGER  I000070028R0000
0016AZD00000000019R0039RSOCDOSSOCDOS                        CHAR     X000030035R0000
0016AZD00000000019R0049RPGPDOSPGPDOS                        INTEGER  I000100038R0000
0016AZD00000000019R0059RCDSTDFCDSTDF                        CHAR     X000020048R1000
0016AZD00000000019R0069RIDOBJFIDOBJF                        CHAR     X002000050R1000
0016AZD00000000019R0079RTYATCHTYATCH                        CHAR     X000010250R1000
0016AZD00000000019R0089RCDSTDICDSTDI                        CHAR     X000020251R0000
0016AZD00000000019R0099RIDGPRFIDGPRF                        INTEGER  I000100253R0000
0016AZD00000000019R0109RTYOBJITYOBJI                        CHAR     X000500263R0000
0016AZD00000000019R0119RTYOBJFTYOBJF                        CHAR     X000500313R0000
0016AZD00000000019R0129RNATREFNATREF                        CHAR     X000010363R0000
0016AZD00000000019R0139RTYPREFTYPREF                        CHAR     X000010364R0000
0074DZD00025762019R000+000257620+000001FDP+000500000ZDCOM|DLA|CATEGORY                                                                                                                                                                                         ZD+000000000TConstant                                         TQualifierType                                    IAX
0074DZD00025762019R000+000257620+000002FDP+000500000ZDCOM|UCA|ABAURSSAF                                                                                                                                                                                        ZD+000000000TConstant                                         TQualifier                                        IAX
0017DZD0002576201*2000+000257620+0005000009R2018-06-29-17.28.060+00002+000002+000000X
0016AZD0000000001CU001CUNUDOSSNUDOSS                        INTEGER  I000100018R0000
0016AZD0000000001CU002CUNULIGNNULIGN                        INTEGER  I000070028R0000
0016AZD0000000001CU003CUNULIGSNULIGS                        INTEGER  I000070035R0000
0016AZD0000000001CU004CUNULIGPNULIGP                        INTEGER  I000070042R0000
0016AZD0000000001CU005CUTEACTITEACTI                        CHAR     X000010049R0000
0016AZD0000000001CU006CUSOCDOSSOCDOS                        CHAR     X000030050R0000
0016AZD0000000001CU007CUPGPDOSPGPDOS                        INTEGER  I000100053R0000
0016AZD0000000001CU008CUMTCL1CMTCL1C                        CHAR     X000150063R1000
0016AZD0000000001CU009CUMTCL2CMTCL2C                        CHAR     X000150078R1000
0016AZD0000000001CU010CUDATRI DATRI                         DATE     Q000100093R1000
0016AZD0000000001CU011CUKEYSO1KEYSO1                        CHAR     Y000150103R1000
0016AZD0000000001CU012CUKEYSO2KEYSO2                        CHAR     Y000150118R1000
0016AZD0000000001CU013CUKEYSO3KEYSO3                        CHAR     Y000150133R1000
0016AZD0000000001CU014CUKEYSO4KEYSO4                        CHAR     Y000150148R1000
0016AZD0000000001CU015CUKEYSO5KEYSO5                        CHAR     Y000150163R1000
0016AZD0000000001CU016CUDATXXXDATXXX                        DATE     Q000100178R0000
0016AZD0000000001CU017CUDAEFF DAEFF                         DATE     Q000100188R1000
0016AZD0000000001CU018CUMTCL3CMTCL3C                        CHAR     X000150198R0000
0016AZD0000000001CU019CUMTCL3DMTCL3D                        DATE     Q000100213R0000
0016AZD0000000001CU020CUMTCL3NMTCL3N                        DECIMAL  N500160223R0000
0016AZD0000000001CU021CUMTCL4CMTCL4C                        CHAR     X000150239R0000
0016AZD0000000001CU022CUMTCL4DMTCL4D                        DATE     Q000100254R0000
0016AZD0000000001CU023CUMTCL4NMTCL4N                        DECIMAL  N500160264R0000
0016AZD0000000001CU024CUMTCL5CMTCL5C                        CHAR     X000150280R0000
0016AZD0000000001CU025CUMTCL5DMTCL5D                        DATE     Q000100295R0000
0016AZD0000000001CU026CUMTCL5NMTCL5N                        DECIMAL  N500160305R0000
0016AZD0000000001CU027CUMTCL6CMTCL6C                        CHAR     X000150321R0000
0016AZD0000000001CU028CUMTCL6DMTCL6D                        DATE     Q000100336R0000
0016AZD0000000001CU029CUMTCL6NMTCL6N                        DECIMAL  N500160346R0000
0016AZD0000000001CU030CUMTCL7CMTCL7C                        CHAR     X000150362R0000
0016AZD0000000001CU031CUMTCL7DMTCL7D                        DATE     Q000100377R0000
0016AZD0000000001CU032CUMTCL7NMTCL7N                        DECIMAL  N500160387R0000
0016AZD0000000001CU033CUVALEURVALEUR                        DECIMAL  N600160403R0000
0084DZD0002576201CU000+000257620+000001+000000+0000003FDP+000500000                              1997-07-01                                                                           2999-12-311997-07-01               0001-01-01+000000000000000               0001-01-01+000000000000000               0001-01-01+000000000000000               0001-01-01+000000000000000               0001-01-01+000000000000000+000001015870000X
0084DZD0002576201CU000+000257620+000002+000000+0000003FDP+000500000                              1998-07-01                                                                           2999-12-311998-07-01               0001-01-01+000000000000000               0001-01-01+000000000000000               0001-01-01+000000000000000               0001-01-01+000000000000000               0001-01-01+000000000000000+000001036220000X
0084DZD0002576201CU000+000257620+000003+000000+0000003FDP+000500000                              1999-07-01                                                                           2999-12-311999-07-01               0001-01-01+000000000000000               0001-01-01+000000000000000               0001-01-01+000000000000000               0001-01-01+000000000000000               0001-01-01+000000000000000+000001049100000X
0084DZD0002576201CU000+000257620+000004+000000+0000003FDP+000500000                              2000-07-01                                                                           2999-12-312000-07-01               0001-01-01+000000000000000               0001-01-01+000000000000000               0001-01-01+000000000000000               0001-01-01+000000000000000               0001-01-01+000000000000000+000001082600000X
0084DZD0002576201CU000+000257620+000005+000000+0000003FDP+000500000                              2001-07-01                                                                           2999-12-312001-07-01               0001-01-01+000000000000000               0001-01-01+000000000000000               0001-01-01+000000000000000               0001-01-01+000000000000000               0001-01-01+000000000000000+000001126400000X
0084DZD0002576201CU000+000257620+000006+000000+0000003FDP+000500000                              2002-07-01                                                                           2999-12-312002-07-01               0001-01-01+000000000000000               0001-01-01+000000000000000               0001-01-01+000000000000000               0001-01-01+000000000000000               0001-01-01+000000000000000+000001154270000X
0084DZD0002576201CU000+000257620+000007+000000+0000003FDP+000500000                              2004-07-01                                                                           2999-12-312004-07-01               0001-01-01+000000000000000               0001-01-01+000000000000000               0001-01-01+000000000000000               0001-01-01+000000000000000               0001-01-01+000000000000000+000001286090000X
0084DZD0002576201CU000+000257620+000008+000000+0000003FDP+000500000                              2005-07-01                                                                           2999-12-312005-07-01               0001-01-01+000000000000000               0001-01-01+000000000000000               0001-01-01+000000000000000               0001-01-01+000000000000000               0001-01-01+000000000000000+000001357070000X
0084DZD0002576201CU000+000257620+000009+000000+0000003FDP+000500000                              2006-07-01                                                                           2999-12-312006-07-01               0001-01-01+000000000000000               0001-01-01+000000000000000               0001-01-01+000000000000000               0001-01-01+000000000000000               0001-01-01+000000000000000+000001397630000X
0084DZD0002576201CU000+000257620+000010+000000+0000003FDP+000500000                              2007-07-01                                                                           2999-12-312007-07-01               0001-01-01+000000000000000               0001-01-01+000000000000000               0001-01-01+000000000000000               0001-01-01+000000000000000               0001-01-01+000000000000000+000001426360000X
0084DZD0002576201CU000+000257620+000011+000000+0000003FDP+000500000                              2008-05-01                                                                           2999-12-312008-05-01               0001-01-01+000000000000000               0001-01-01+000000000000000               0001-01-01+000000000000000               0001-01-01+000000000000000               0001-01-01+000000000000000+000001458470000X
0084DZD0002576201CU000+000257620+000012+000000+0000003FDP+000500000                              2008-07-01                                                                           2999-12-312008-07-01               0001-01-01+000000000000000               0001-01-01+000000000000000               0001-01-01+000000000000000               0001-01-01+000000000000000               0001-01-01+000000000000000+000001471990000X
0084DZD0002576201CU000+000257620+000013+000000+0000003FDP+000500000                              2009-07-01                                                                           2999-12-312009-07-01               0001-01-01+000000000000000               0001-01-01+000000000000000               0001-01-01+000000000000000               0001-01-01+000000000000000               0001-01-01+000000000000000+000001490580000X
0084DZD0002576201CU000+000257620+000014+000000+0000003FDP+000500000                              2010-01-01                                                                           2999-12-312010-01-01               0001-01-01+000000000000000               0001-01-01+000000000000000               0001-01-01+000000000000000               0001-01-01+000000000000000               0001-01-01+000000000000000+000001497340000X
0084DZD0002576201CU000+000257620+000015+000000+0000003FDP+000500000                              2012-07-01                                                                           2999-12-312012-07-01               0001-01-01+000000000000000               0001-01-01+000000000000000               0001-01-01+000000000000000               0001-01-01+000000000000000               0001-01-01+000000000000000+000001588600000X
0084DZD0002576201CU000+000257620+000016+000000+0000003FDP+000500000                              2013-01-01                                                                           2999-12-312013-01-01               0001-01-01+000000000000000               0001-01-01+000000000000000               0001-01-01+000000000000000               0001-01-01+000000000000000               0001-01-01+000000000000000+000001610020000X
0084DZD0002576201CU000+000257620+000017+000000+0000003FDP+000500000                              2014-01-01                                                                           2999-12-312014-01-01               0001-01-01+000000000000000               0001-01-01+000000000000000               0001-01-01+000000000000000               0001-01-01+000000000000000               0001-01-01+000000000000000+000001627090000X
0084DZD0002576201CU000+000257620+000019+000000+0000003FDP+000500000                              2015-01-01                                                                           2999-12-312015-01-01               0001-01-01+000000000000000               0001-01-01+000000000000000               0001-01-01+000000000000000               0001-01-01+000000000000000               0001-01-01+000000000000000+000001640760000X
0084DZD0002576201CU000+000257620+000018+000000+0000003FDP+000500000                              2016-01-01                                                                           2999-12-312016-01-01               0001-01-01+000000000000000               0001-01-01+000000000000000               0001-01-01+000000000000000               0001-01-01+000000000000000               0001-01-01+000000000000000+000001676130000X
0084DZD0002576201CU000+000257620+000020+000000+0000003FDP+000500000                              2017-01-01                                                                           2999-12-312017-01-01               0001-01-01+000000000000000               0001-01-01+000000000000000               0001-01-01+000000000000000               0001-01-01+000000000000000               0001-01-01+000000000000000+000001691730000X
0017DZD0002576201*2000+000257620+000500000CU2018-06-29-17.28.060+00020+000020+000020X
0025DZD000263419000000+000263419FDP+000500000FDPDRCTRD            A                              0001-01-012999-12-31+000500000X
0017DZD0002634191*2000+000263419+000500000002018-06-29-17.28.060+00001+000000+000000X
0176DZD000263419101000+000263419F+000001FDP+000500000TICKET RESTAURANT SAL TREVEST                TICK REST SAL.                                                                                                                                                                                                                                                                                                                                                                                                                                                                                                                                                                                                                                                                                                                                                                                              0X
0017DZD0002634191*2000+000263419+000500000012018-06-29-17.28.060+00001+000001+000001X
0016AZD00000000014M0014MNUDOSSNUDOSS                        INTEGER  I000100018R0000
0016AZD00000000014M0024MNULIGNNULIGN                        INTEGER  I000070028R0000
0016AZD00000000014M0034MSOCDOSSOCDOS                        CHAR     X000030035R0000
0016AZD00000000014M0044MPGPDOSPGPDOS                        INTEGER  I000100038R0000
0016AZD00000000014M0054MCRIT11CRIT11                        CHAR     X000150048R1000
0016AZD00000000014M0064MCRIT12CRIT12                        CHAR     X000100063R1000
0016AZD00000000014M0074MCRIT21CRIT21                        CHAR     X000150073R1000
0016AZD00000000014M0084MCRIT22CRIT22                        CHAR     X000100088R1000
0016AZD00000000014M0094MCRIT31CRIT31                        CHAR     X000150098R1000
0016AZD00000000014M0104MCRIT32CRIT32                        CHAR     X000100113R1000
0016AZD00000000014M0114MSALPATSALPAT                        CHAR     X000010123R1000
0016AZD00000000014M0124MDEBCREDEBCRE                        CHAR     X000010124R1000
0016AZD00000000014M0134MSIGNE1SIGNE1                        CHAR     X000010125R1000
0016AZD00000000014M0144MIDGLCOIDGLCO                        CHAR     X000150126R0000
0016AZD00000000014M0154MIDCSCRIDCSCR                        CHAR     X000150141R0000
0016AZD00000000014M0164MIDCSCFIDCSCF                        CHAR     X000090156R0000
0016AZD00000000014M0174MIDACCRIDACCR                        CHAR     X000150165R0000
0016AZD00000000014M0184MIDACCFIDACCF                        CHAR     X000100180R0000
0016AZD00000000014M0194MIDSUBRIDSUBR                        CHAR     X000150190R0000
0016AZD00000000014M0204MIDSUBFIDSUBF                        CHAR     X000100205R0000
0016AZD00000000014M0214MTEMANATEMANA                        CHAR     X000010215R0000
0044DZD00026341914M000+000263419+000001FDP+000500000                                                                           AC                                        4379000000                                        0X
0017DZD0002634191*2000+000263419+0005000004M2018-06-29-17.28.060+00001+000001+000001X
0016AZD0000000001AH001AHNUDOSSNUDOSS                        INTEGER  I000100018R0000
0016AZD0000000001AH002AHSOCDOSSOCDOS                        CHAR     X000030028R0000
0016AZD0000000001AH003AHPGPDOSPGPDOS                        INTEGER  I000100031R0000
0016AZD0000000001AH004AHCDTYCACDTYCA                        CHAR     X000020041R0000
0016AZD0000000001AH005AHCDREGUCDREGU                        CHAR     X000030043R0000
0016AZD0000000001AH006AHCDASSICDASSI                        CHAR     X000030046R0000
0016AZD0000000001AH007AHTEMARSTEMARS                        CHAR     X000010049R0000
0016AZD0000000001AH008AHMTARSAMTARSA                        DECIMAL  9400100050R0000
0016AZD0000000001AH009AHTEMARPTEMARP                        CHAR     X000010060R0000
0016AZD0000000001AH010AHMTARPAMTARPA                        DECIMAL  9400100061R0000
0016AZD0000000001AH011AHRGCALCRGCALC                        DECIMAL  9000040071R0000
0016AZD0000000001AH012AHTEPAISTEPAIS                        CHAR     X000010075R0000
0016AZD0000000001AH013AHTENATUTENATU                        CHAR     X000010076R0000
0016AZD0000000001AH014AHNUMINDNUMIND                        CHAR     X000010077R0000
0016AZD0000000001AH015AHTESOURTESOUR                        CHAR     X000010078R0000
0016AZD0000000001AH016AHCDPECACDPECA                        CHAR     X000010079R0000
0016AZD0000000001AH017AHTETYPRTETYPR                        CHAR     X000010080R0000
0016AZD0000000001AH018AHCDUNPRCDUNPR                        CHAR     X000020081R0000
0016AZD0000000001AH019AHTEMRAPTEMRAP                        CHAR     X000010083R0000
0016AZD0000000001AH020AHCDRUMACDRUMA                        CHAR     X000030084R0000
0016AZD0000000001AH021AHNATMAXNATMAX                        CHAR     X000010087R0000
0016AZD0000000001AH022AHCDREGRCDREGR                        CHAR     X000030088R0000
0016AZD0000000001AH023AHARRPROARRPRO                        CHAR     X000010091R0000
0016AZD0000000001AH024AHRAPSORRAPSOR                        CHAR     X000010092R0000
0016AZD0000000001AH025AHRTEGSNRTEGSN                        CHAR     X000010093R0000
0016AZD0000000001AH026AHESMULTESMULT                        CHAR     X000010094R0000
0016AZD0000000001AH027AHPAYADVPAYADV                        CHAR     X000010095R0000
0016AZD0000000001AH028AHPIACALPIACAL                        CHAR     X000010096R0000
0016AZD0000000001AH029AHECLBUDECLBUD                        CHAR     X000030097R0000
0016AZD0000000001AH030AHIDGROUIDGROU                        CHAR     X000020100R0000
0016AZD0000000001AH031AHIDARREIDARRE                        CHAR     X000030102R0000
0016AZD0000000001AH032AHFLBNDEFLBNDE                        CHAR     X000010105R0000
0016AZD0000000001AH033AHFLAXESFLAXES                        CHAR     X000010106R0000
0016AZD0000000001AH034AHCDDSPHCDDSPH                        CHAR     X000030107R0000
0016AZD0000000001AH035AHTEMACTTEMACT                        CHAR     X000010110R0000
0016AZD0000000001AH036AHTEMRACTEMRAC                        CHAR     X000010111R0000
0016AZD0000000001AH037AHTEMCACTEMCAC                        CHAR     X000010112R0000
0016AZD0000000001AH038AHTESOMRTESOMR                        CHAR     X000010113R0000
0016AZD0000000001AH039AHCDSOMRCDSOMR                        CHAR     X000030114R0000
0016AZD0000000001AH040AHTEMCPNTEMCPN                        CHAR     X000010117R0000
0016AZD0000000001AH041AHTEMCPSTEMCPS                        CHAR     X000010118R0000
0016AZD0000000001AH042AHFODEDFFODEDF                        CHAR     X000010119R0000
0016AZD0000000001AH043AHFLTAG1FLTAG1                        CHAR     X000010120R0000
0016AZD0000000001AH044AHFLTAG2FLTAG2                        CHAR     X000010121R0000
0016AZD0000000001AH045AHIDPLANIDPLAN                        CHAR     X000100122R0000
0016AZD0000000001AH046AHFLMQYDFLMQYD                        CHAR     X000010132R0000
0016AZD0000000001AH047AHFLQUANFLQUAN                        CHAR     X000010133R0000
0016AZD0000000001AH048AHFLBASEFLBASE                        CHAR     X000010134R0000
0016AZD0000000001AH049AHFLMNEEFLMNEE                        CHAR     X000010135R0000
0016AZD0000000001AH050AHFLMNERFLMNER                        CHAR     X000010136R0000
0016AZD0000000001AH051AHFLCALNFLCALN                        CHAR     X000010137R0000
0016AZD0000000001AH052AHFLFISCFLFISC                        CHAR     X000010138R0000
0016AZD0000000001AH053AHFLLIFEFLLIFE                        CHAR     X000010139R0000
0016AZD0000000001AH054AHFLINCPFLINCP                        CHAR     X000010140R0000
0016AZD0000000001AH055AHNBPAYPNBPAYP                        DECIMAL  9000050141R0000
0016AZD0000000001AH056AHRTEPTARTEPTA                        CHAR     X000010146R0000
0016AZD0000000001AH057AHRTENTGRTENTG                        CHAR     X000010147R0000
0016AZD0000000001AH058AHRAPRETRAPRET                        CHAR     X000010148R0000
0016AZD0000000001AH059AHIDGARNIDGARN                        CHAR     X000060149R0000
0016AZD0000000001AH060AHFLTSUPFLTSUP                        CHAR     X000010155R0000
0016AZD0000000001AH061AHFLFEESFLFEES                        CHAR     X000010156R0000
0016AZD0000000001AH062AHFLMERGFLMERG                        CHAR     X000010157R0000
0016AZD0000000001AH063AHSTEP2PSTEP2P                        CHAR     X000010158R0000
0016AZD0000000001AH064AHFLTAXCFLTAXC                        CHAR     X000010159R0000
0016AZD0000000001AH065AHTAXPAYTAXPAY                        CHAR     X000030160R0000
0033DZD0002634191AH000+000263419FDP+00050000082      P+000000100P+000000100+000 2  B0          N0             0   00 1   0              00000    +0000                 X
0017DZD0002634191*2000+000263419+000500000AH2018-06-29-17.28.060+00001+000000+000000X
0016AZD0000000001AO001AONUDOSSNUDOSS                        INTEGER  I000100018R0000
0016AZD0000000001AO002AOSOCDOSSOCDOS                        CHAR     X000030028R0000
0016AZD0000000001AO003AOPGPDOSPGPDOS                        INTEGER  I000100031R0000
0016AZD0000000001AO004AONUORGANUORGA                        CHAR     X000080041R0000
0016AZD0000000001AO005AOCDCOMPCDCOMP                        CHAR     X000080049R0000
0016AZD0000000001AO006AOTEJOU1TEJOU1                        CHAR     X000010057R0000
0016AZD0000000001AO007AOTEJOU2TEJOU2                        CHAR     X000010058R0000
0016AZD0000000001AO008AOTEJOU3TEJOU3                        CHAR     X000010059R0000
0016AZD0000000001AO009AOTEJOU4TEJOU4                        CHAR     X000010060R0000
0016AZD0000000001AO010AOTEJOU5TEJOU5                        CHAR     X000010061R0000
0016AZD0000000001AO011AOTEJOU6TEJOU6                        CHAR     X000010062R0000
0016AZD0000000001AO012AOTEJOU7TEJOU7                        CHAR     X000010063R0000
0016AZD0000000001AO013AORGPOSJRGPOSJ                        CHAR     X000020064R0000
0016AZD0000000001AO014AOTECALPTECALP                        CHAR     X000010066R0000
0016AZD0000000001AO015AOTECALMTECALM                        CHAR     X000010067R0000
0016AZD0000000001AO016AOTECALITECALI                        CHAR     X000010068R0000
0016AZD0000000001AO017AOTECALQTECALQ                        CHAR     X000010069R0000
0016AZD0000000001AO018AOTECALDTECALD                        CHAR     X000010070R0000
0016AZD0000000001AO019AOTECALBTECALB                        CHAR     X000010071R0000
0016AZD0000000001AO020AOTECALTTECALT                        CHAR     X000010072R0000
0016AZD0000000001AO021AOTEBULQTEBULQ                        CHAR     X000010073R0000
0016AZD0000000001AO022AOTEBULDTEBULD                        DECIMAL  9000020074R0000
0016AZD0000000001AO023AOTEBULTTEBULT                        CHAR     X000010076R0000
0016AZD0000000001AO024AOTEBULMTEBULM                        CHAR     X000010077R0000
0016AZD0000000001AO025AORGPOSBRGPOSB                        CHAR     X000020078R0000
0016AZD0000000001AO026AORGPOSARGPOSA                        CHAR     X000020080R0000
0016AZD0000000001AO027AOTEAPRPTEAPRP                        CHAR     X000010082R0000
0016AZD0000000001AO028AOTEAPARTEAPAR                        CHAR     X000010083R0000
0016AZD0000000001AO029AOTEZY8KTEZY8K                        CHAR     X000010084R0000
0016AZD0000000001AO030AORGPOSERGPOSE                        CHAR     X000020085R0000
0016AZD0000000001AO031AOTEMONTTEMONT                        CHAR     X000010087R0000
0016AZD0000000001AO032AOTOLERATOLERA                        DECIMAL  N200060088R0000
0016AZD0000000001AO033AOTECOMPTECOMP                        CHAR     X000010094R0000
0016AZD0000000001AO034AOIDFRPYIDFRPY                        CHAR     X000080095R0000
0016AZD0000000001AO035AOMEMO01MEMO01                        CHAR     X000150103R0000
0016AZD0000000001AO036AOMEMO02MEMO02                        CHAR     X000150118R0000
0016AZD0000000001AO037AOMEMO03MEMO03                        CHAR     X000080133R0000
0016AZD0000000001AO038AOMEMO04MEMO04                        CHAR     X000080141R0000
0016AZD0000000001AO039AOMEMO05MEMO05                        CHAR     X000050149R0000
0016AZD0000000001AO040AOMEMO06MEMO06                        CHAR     X000050154R0000
0016AZD0000000001AO041AOMEMO07MEMO07                        CHAR     X000050159R0000
0016AZD0000000001AO042AOMEMO08MEMO08                        CHAR     X000050164R0000
0016AZD0000000001AO043AOMEMO09MEMO09                        CHAR     X000030169R0000
0016AZD0000000001AO044AOMEMO10MEMO10                        CHAR     X000030172R0000
0016AZD0000000001AO045AOMEMO11MEMO11                        CHAR     X000030175R0000
0016AZD0000000001AO046AOTEEDITTEEDIT                        CHAR     X000010178R0000
0016AZD0000000001AO047AOFLBO10FLBO10                        CHAR     X000010179R0000
0016AZD0000000001AO048AOFLBO11FLBO11                        CHAR     X000010180R0000
0016AZD0000000001AO049AOFLBO12FLBO12                        CHAR     X000010181R0000
0016AZD0000000001AO050AOFLCO12FLCO12                        CHAR     X000010182R0000
0016AZD0000000001AO051AOFLSQW1FLSQW1                        CHAR     X000010183R0000
0016AZD0000000001AO052AOFLSQW2FLSQW2                        CHAR     X000010184R0000
0016AZD0000000001AO053AOCDINFOCDINFO                        CHAR     X000020185R0000
0016AZD0000000001AO054AOPOSAGRPOSAGR                        CHAR     X000020187R0000
0038DZD0002634191AO000+000263419FDP+000500000                     X MA X XX XQ+1TMMA  001  X+000001                                                                                   1        PAX
0017DZD0002634191*2000+000263419+000500000AO2018-06-29-17.28.060+00001+000000+000000X
0016AZD0000000001BA001BANUDOSSNUDOSS                        INTEGER  I000100018R0000
0016AZD0000000001BA002BANULIGNNULIGN                        INTEGER  I000070028R0000
0016AZD0000000001BA003BASOCDOSSOCDOS                        CHAR     X000030035R0000
0016AZD0000000001BA004BAPGPDOSPGPDOS                        INTEGER  I000100038R0000
0016AZD0000000001BA005BANUMELINUMELI                        CHAR     X000080048R1000
0016AZD0000000001BA006BACOMMENCOMMEN                        CHAR     X000630056R0000
0024DZD0002634191BA000+000263419+000001FDP+000500000A0000000---------------------- REGLES -----------------------          X
0024DZD0002634191BA000+000263419+000002FDP+000500000A0000001TICKET RESTAURANT PART SALARIALE                               X
0024DZD0002634191BA000+000263419+000003FDP+000500000A0000002NON SOUMIS                                                     X
0024DZD0002634191BA000+000263419+000004FDP+000500000A9999999                                                               X
0024DZD0002634191BA000+000263419+000005FDP+000500000B0000000--------------------- ETABLISSEMENT -- POPULATION ------       X
0024DZD0002634191BA000+000263419+000006FDP+000500000B0000001ETAB = TREVEST                                                 X
0024DZD0002634191BA000+000263419+000007FDP+000500000B0000002POPULATION = TOUS                                              X
0024DZD0002634191BA000+000263419+000008FDP+000500000B9999999                                                               X
0024DZD0002634191BA000+000263419+000009FDP+000500000C0000000--------------- DECLENCHEMENT -------------                    X
0024DZD0002634191BA000+000263419+000010FDP+000500000C0000001DS3=00362, ARRETE AU 311211                                    X
0024DZD0002634191BA000+000263419+000015FDP+000500000C0000002DECLENCHEMENT EN DRM000 A PARTIR DU 010611                     X
0024DZD0002634191BA000+000263419+000011FDP+000500000C9999999                                                               X
0024DZD0002634191BA000+000263419+000012FDP+000500000P0000000----------------- PARAMETRAGE                                  X
0024DZD0002634191BA000+000263419+000013FDP+000500000P0000001CREATION MS LE 27/05/04                                        X
0024DZD0002634191BA000+000263419+000014FDP+000500000P0000002MODIFICATION AU 010611                                         X
0024DZD0002634191BA000+000263419+000016FDP+000500000P0000003UTILISATION DE NTI DANS LA FORMULE DE CALCUL                   X
0017DZD0002634191*2000+000263419+000500000BA2018-06-29-17.28.060+00016+000016+000014X
0016AZD0000000001CP001CPNUDOSSNUDOSS                        INTEGER  I000100018R0000
0016AZD0000000001CP002CPNULIGNNULIGN                        INTEGER  I000070028R0000
0016AZD0000000001CP003CPNULIGSNULIGS                        INTEGER  I000070035R0000
0016AZD0000000001CP004CPNULIGPNULIGP                        INTEGER  I000070042R0000
0016AZD0000000001CP005CPTEACTITEACTI                        CHAR     X000010049R0000
0016AZD0000000001CP006CPSOCDOSSOCDOS                        CHAR     X000030050R0000
0016AZD0000000001CP007CPPGPDOSPGPDOS                        INTEGER  I000100053R0000
0016AZD0000000001CP008CPDATXXXDATXXX                        DATE     Q000100063R0000
0016AZD0000000001CP009CPDAEFF DAEFF                         DATE     Q000100073R1000
0016AZD0000000001CP010CPCDTYCACDTYCA                        CHAR     X000020083R0000
0016AZD0000000001CP011CPCDASSICDASSI                        CHAR     X000030085R0000
0016AZD0000000001CP012CPCDREGUCDREGU                        CHAR     X000030088R0000
0016AZD0000000001CP013CPNBEN01NBEN01                        DECIMAL  9000040091R0000
0016AZD0000000001CP014CPNBEN02NBEN02                        DECIMAL  9000040095R0000
0016AZD0000000001CP015CPNBEN03NBEN03                        DECIMAL  9000040099R0000
0016AZD0000000001CP016CPCDMOT1CDMOT1                        CHAR     X000080103R0000
0016AZD0000000001CP017CPTYENT1TYENT1                        CHAR     X000010111R0000
0016AZD0000000001CP018CPCDENT1CDENT1                        CHAR     X000030112R0000
0016AZD0000000001CP019CPMONTA1MONTA1                        DECIMAL  N300120115R0000
0016AZD0000000001CP020CPCDMOT2CDMOT2                        CHAR     X000080127R0000
0016AZD0000000001CP021CPTYENT2TYENT2                        CHAR     X000010135R0000
0016AZD0000000001CP022CPCDENT2CDENT2                        CHAR     X000030136R0000
0016AZD0000000001CP023CPMONTA2MONTA2                        DECIMAL  N300120139R0000
0016AZD0000000001CP024CPCDMOT3CDMOT3                        CHAR     X000080151R0000
0016AZD0000000001CP025CPTYENT3TYENT3                        CHAR     X000010159R0000
0016AZD0000000001CP026CPCDENT3CDENT3                        CHAR     X000030160R0000
0016AZD0000000001CP027CPMONTA3MONTA3                        DECIMAL  N300120163R0000
0016AZD0000000001CP028CPTEZERMTEZERM                        CHAR     X000010175R0000
0016AZD0000000001CP029CPCDMOT4CDMOT4                        CHAR     X000080176R0000
0016AZD0000000001CP030CPTYENT4TYENT4                        CHAR     X000010184R0000
0016AZD0000000001CP031CPCDENT4CDENT4                        CHAR     X000030185R0000
0016AZD0000000001CP032CPMONTA4MONTA4                        DECIMAL  N300120188R0000
0016AZD0000000001CP033CPCDMOT5CDMOT5                        CHAR     X000080200R0000
0016AZD0000000001CP034CPTYENT5TYENT5                        CHAR     X000010208R0000
0016AZD0000000001CP035CPCDENT5CDENT5                        CHAR     X000030209R0000
0016AZD0000000001CP036CPMONTA5MONTA5                        DECIMAL  N300120212R0000
0016AZD0000000001CP037CPCDMOT6CDMOT6                        CHAR     X000080224R0000
0016AZD0000000001CP038CPTYENT6TYENT6                        CHAR     X000010232R0000
0016AZD0000000001CP039CPCDENT6CDENT6                        CHAR     X000030233R0000
0016AZD0000000001CP040CPMONTA6MONTA6                        DECIMAL  N300120236R0000
0016AZD0000000001CP041CPCDMOT7CDMOT7                        CHAR     X000080248R0000
0016AZD0000000001CP042CPTYENT7TYENT7                        CHAR     X000010256R0000
0016AZD0000000001CP043CPCDENT7CDENT7                        CHAR     X000030257R0000
0016AZD0000000001CP044CPMONTA7MONTA7                        DECIMAL  N300120260R0000
0016AZD0000000001CP045CPCDMOT8CDMOT8                        CHAR     X000080272R0000
0016AZD0000000001CP046CPTYENT8TYENT8                        CHAR     X000010280R0000
0016AZD0000000001CP047CPCDENT8CDENT8                        CHAR     X000030281R0000
0016AZD0000000001CP048CPMONTA8MONTA8                        DECIMAL  N300120284R0000
0016AZD0000000001CP049CPCDMOT9CDMOT9                        CHAR     X000080296R0000
0016AZD0000000001CP050CPTYENT9TYENT9                        CHAR     X000010304R0000
0016AZD0000000001CP051CPCDENT9CDENT9                        CHAR     X000030305R0000
0016AZD0000000001CP052CPMONTA9MONTA9                        DECIMAL  N300120308R0000
0016AZD0000000001CP053CPCDMO10CDMO10                        CHAR     X000080320R0000
0016AZD0000000001CP054CPTYEN10TYEN10                        CHAR     X000010328R0000
0016AZD0000000001CP055CPCDEN10CDEN10                        CHAR     X000030329R0000
0016AZD0000000001CP056CPMONT10MONT10                        DECIMAL  N300120332R0000
0016AZD0000000001CP057CPFORLIBFORLIB                        CHAR     X000570344R0000
0016AZD0000000001CP058CPLICON LICON                         VARCHAR  V006340401R0000
0208DZD0002634191CP000+000263419+000001+000002+0000003FDP+0005000002011-06-012004-06-0182      +000+000+000        RNJG+00000000000        K329+00000000000            +00000000000             +00000000000            +00000000000            +00000000000            +00000000000            +00000000000            +00000000000            +00000000000                                                         0000                                                                                                                                                                                                                                                                                                                                                                                                                                                                                                                                                                                                                                                      X
0208DZD0002634191CP000+000263419+000002+000000+0000013FDP+0005000002999-12-312011-06-0182      +000+000+000        RNTI+00000000000        K329+00000000000            +00000000000             +00000000000            +00000000000            +00000000000            +00000000000            +00000000000            +00000000000            +00000000000                                                         0000                                                                                                                                                                                                                                                                                                                                                                                                                                                                                                                                                                                                                                                      X
0017DZD0002634191*2000+000263419+000500000CP2018-06-29-17.28.060+00002+000002+000002X
0016AZD0000000001CQ001CQNUDOSSNUDOSS                        INTEGER  I000100018R0000
0016AZD0000000001CQ002CQNULIGNNULIGN                        INTEGER  I000070028R0000
0016AZD0000000001CQ003CQSOCDOSSOCDOS                        CHAR     X000030035R0000
0016AZD0000000001CQ004CQPGPDOSPGPDOS                        INTEGER  I000100038R0000
0016AZD0000000001CQ005CQCDASSICDASSI                        CHAR     X000030048R1000
0016AZD0000000001CQ006CQTEASSITEASSI                        CHAR     X000010051R1000
0016AZD0000000001CQ007CQSIASSISIASSI                        CHAR     X000010052R1000
0011DZD0002634191CQ000+000263419+000001FDP+000500000975M+X
0011DZD0002634191CQ000+000263419+000002FDP+000500000A37M+X
0017DZD0002634191*2000+000263419+000500000CQ2018-06-29-17.28.060+00002+000002+000002X
0025DZD000279124000000+000279124FDP+000500000FDPDRCPSR                                           0001-01-012999-12-31+000500000X
0017DZD0002791241*2000+000279124+000500000002018-06-29-17.28.060+00001+000000+000000X
0176DZD000279124101000+000279124F+000001FDP+000500000Plafond annuel securite sociale              Plafond annuel SS                                                                                                                                                                                                                                                                                                                                                                                                                                                                                                                                                                                                                                                                                                                                                                                            X
0017DZD0002791241*2000+000279124+000500000012018-06-29-17.28.060+00001+000001+000000X
0033DZD0002791241AH000+000279124FDP+00050000082      P+0000001000+000000100+031 1  B0          N0             0   0001   00             00000    +0000  0              X
0017DZD0002791241*2000+000279124+000500000AH2018-06-29-17.28.060+00001+000000+000000X
0038DZD0002791241AO000+000279124FDP+000500000                          X X   Q+1TM    000  X+000001                                                                                   1          X
0017DZD0002791241*2000+000279124+000500000AO2018-06-29-17.28.060+00001+000000+000000X
0024DZD0002791241BA000+000279124+000001FDP+000500000A0000000---------- REGLES -----------                                  X
0024DZD0002791241BA000+000279124+000002FDP+000500000A0000001PLAFOND ANNUEL SECURITE SOCIALE                                X
0024DZD0002791241BA000+000279124+000008FDP+000500000C0000000---------- DECLENCHEMENT --------------                        X
0024DZD0002791241BA000+000279124+000009FDP+000500000C0000001DS 00550, VIA LE DRM 150                                       X
0024DZD0002791241BA000+000279124+000011FDP+000500000P0000000------------ SUIVI PARAMETRAGE ---------------                 X
0024DZD0002791241BA000+000279124+000012FDP+000500000P0000001CREATION F BESSER : 08/2011                                    X
0024DZD0002791241BA000+000279124+000013FDP+000500000P9999999                                                               X
0017DZD0002791241*2000+000279124+000500000BA2018-06-29-17.28.060+00007+000013+000000X
0208DZD0002791241CP000+000279124+000001+000000+0000003FDP+0005000002999-12-312012-01-0182      +000+000+000        K060+00000000000            +00000012000            +00000000000             +00000000000            +00000000000            +00000000000            +00000000000            +00000000000            +00000000000            +00000000000                                                         0000                                                                                                                                                                                                                                                                                                                                                                                                                                                                                                                                                                                                                                                      X
0017DZD0002791241*2000+000279124+000500000CP2018-06-29-17.28.060+00001+000001+000001X
0025DZD000192777000000+000192777FDP+000500000FDPUIYECR            A                              0001-01-012999-12-31+000500000X
0017DZD0001927771*2000+000192777+000500000002013-09-16-15.48.430+00001+000000+000000X
0176DZD000192777101000+000192777F+000001FDP+000500000Employe CCN Croix-Rouge                      Employe CCN CR                                                                                                                                                                                                                                                                                                                                                                                                                                                                                                                                                                                                                                                                                                                                                                                              0X
0016AZD00000000010B0010BNUDOSSNUDOSS                        INTEGER  I000100018R0000
0016AZD00000000010B0020BSOCDOSSOCDOS                        CHAR     X000030028R0000
0016AZD00000000010B0030BPGPDOSPGPDOS                        INTEGER  I000100031R0000
0016AZD00000000010B0040BCODCAICODCAI                        CHAR     X000080041R0000
0016AZD00000000010B0050BCENPAYCENPAY                        CHAR     X000350049R0000
0016AZD00000000010B0060BCONETACONETA                        CHAR     X000350084R0000
0016AZD00000000010B0070BCONSOCCONSOC                        CHAR     X000600119R0000
0016AZD00000000010B0080BNUMRATNUMRAT                        CHAR     X000350179R0000
0016AZD00000000010B0090BCONTACCONTAC                        CHAR     X000080214R0000
0016AZD00000000010B0100BETABLIETABLI                        CHAR     X000080222R0000
0016AZD00000000010B0110BTYPREGTYPREG                        CHAR     X000010230R0000
0016AZD00000000010B0120BTEMOBLTEMOBL                        CHAR     X000010231R0000
0016AZD00000000010B0130BUNGESTUNGEST                        CHAR     X000030232R0000
0016AZD00000000010B0140BCODORGCODORG                        CHAR     X000170235R0000
0016AZD00000000010B0150BRETSALRETSAL                        CHAR     Y000300252R0000
0016AZD00000000010B0160BPOPRATPOPRAT                        CHAR     Y000300282R0000
0025DZD000192841000000+000192841FRC+000500000FRCDRXS02            A                              0001-01-012999-12-31+000500000X
0017DZD0001928411*2000+000192841+000500000002013-09-16-15.48.430+00001+000000+000000X
0176DZD000192841101000+000192841F+000001FRC+000500000ARRCO CIPS MM NON CADRE                      ARRCO CIPS NON CAD                                                                                                                                                                                                                                                                                                                                                                                                                                                                                                                                                                                                                                                                                                                                                                                          0X
0017DZD0001928411*2000+000192841+000500000012013-09-16-15.48.430+00001+000001+000000X
0063DZD00019284110B000+000192841FRC+000500000054                                                                           111111111111111                                                                                                31                                                                                X
0017DZD0001928411*2000+000192841+0005000000B2013-09-16-15.48.430+00001+000000+000000X
0025DZD000192843000000+000192843FRC+000500000FRCDRXM71            A                              0001-01-012999-12-31+000500000X
0067DZD0001928431*2000+000192843FRC+00050000000001-01-01-00.00.002013-09-16-15.48.43DRX0001-01-01-00.00.00                                                                                                                                                                                                      X
0017DZD0001928431*2000+000192843+000500000002013-09-16-15.48.430+00001+000000+000000X
0176DZD000192843101000+000192843F+000001FRC+000500000MUTUELLE CHORUM MALAKOFF-MEDERIC             MUTUELLE CHORUM MM                                                                                                                                                                                                                                                                                                                                                                                                                                                                                                                                                                                                                                                                                                                                                                                          0X
0017DZD0001928431*2000+000192843+000500000012013-09-16-15.48.430+00001+000001+000000X
0063DZD00019284310B000+000192843FRC+000500000057                                                                           111111111111111111                                                                                             31                                                                                X
0017DZD0001928431*2000+000192843+0005000000B2013-09-16-15.48.430+00001+000000+000000X
0025DZD000192857000000+000192857FRC+000500000FRCDRXS03            A                              0001-01-012999-12-31+000500000X
0067DZD0001928571*2000+000192857FRC+00050000000001-01-01-00.00.002013-09-16-15.48.43DRX0001-01-01-00.00.00                                                                                                                                                                                                      X
0017DZD0001928571*2000+000192857+000500000002013-09-16-15.48.430+00001+000000+000000X
0176DZD000192857101000+000192857F+000001FRC+000500000AGIRC CIPC-R MM                              AGIRC CIPC-R MM                                                                                                                                                                                                                                                                                                                                                                                                                                                                                                                                                                                                                                                                                                                                                                                             0X
0017DZD0001928571*2000+000192857+000500000012013-09-16-15.48.430+00001+000001+000000X
0063DZD00019285710B000+000192857FRC+000500000055                                                                           111111111111                                                                                                   11                                                                                X
0017DZD0001928571*2000+000192857+0005000000B2013-09-16-15.48.430+00001+000000+000000X
